:020000040800F2
:10000000B0040020B5330008BD330008BF3300083A
:10001000C1330008C3330008C533000800000000E6
:10002000000000000000000000000000C7330008CE
:10003000C933000800000000CB330008CD330008AE
:10004000CF330008CF330008CF330008CF33000888
:10005000CF330008CF330008CF330008CF33000878
:10006000CF330008CF330008CF330008CF33000868
:10007000CF330008CF330008CF330008CF33000858
:10008000CF330008CF330008CF330008CF33000848
:10009000CF330008CF330008CF330008CF33000838
:1000A000CF330008CF330008CF330008CF33000828
:1000B000B70E0008970D0008CF330008CF330008B3
:1000C000CF330008CF330008CF330008CF33000808
:1000D000CF330008210D0008CF330008CF330008CC
:1000E000A90C0008CF330008CF330008CF33000835
:1000F000CF330008CF330008CF330008CF330008D8
:10010000CF330008CF330008CF330008CF330008C7
:10011000CF330008CF330008CF330008CF330008B7
:10012000CF330008CF330008CF330008CF330008A7
:10013000DFF80CD003F078FD0048004747010008C5
:10014000B0040020704700F05DFC00F006FD00F0F8
:100150008BFC00F044FD00F073FD0B4B00220B49BB
:100160000B4800F091FB00234FF07C5209490A48EC
:1001700000F08AFB00F018FA00F096F900F05FFA40
:1001800000F0B0FA00BFFEE70000C8C2000016434E
:1001900088000020000048429C0000203C2001E034
:1001A000411EC8B20028FBD1704700B5BD480068A9
:1001B00020F00F00BB4908600846006840F00300CB
:1001C00008600846006820F0F000086008460068F3
:1001D00040F0300008600120B24910310860022070
:1001E0000860FFF7DBFFAF480830006800F001004F
:1001F00090F0010001D0002000BD0120A949143178
:100200000860FFF7CBFFA7480830006810F0010F27
:1002100001D00020F0E7FFF7C1FF0120ECE700B5B7
:10022000024608239F48006820F00F009D4908609F
:100230000846006840F0030008601BE0022099496E
:1002400014310860FFF7AAFF12F0800F04D00120DC
:1002500094491031086003E001209249143108608C
:100260005006020EFFF79AFF02208E4910310860F7
:10027000FFF794FF1800A3F10101CBB2DED10220F9
:1002800088491431086000BD00B508230022854864
:10029000006820F00F00834908600846006840F0BD
:1002A0000800086015E05006020E02207D49143156
:1002B0000860FFF773FF02207A4910310860FFF7EA
:1002C0006DFF78480830006810F0010F01D042F04F
:1002D00001021800A3F10101CBB2E4D1022071495F
:1002E00014310860104600BD00B502466D48006834
:1002F00020F00F006B4908600846006840F00300DA
:1003000008600220674914310860FFF747FF22B1F7
:10031000012064491031086003E001206149143173
:100320000860FFF73BFF01205E4910310860FFF7CE
:1003300035FF02205B4914310860FFF72FFF00BD35
:1003400000B55848006820F00F005649086008467C
:10035000006840F00800086002205249143108602B
:10036000FFF71CFF01204F4910310860FFF716FF0F
:1003700002204C4910310860FFF710FF494808304F
:10038000006810F0010F07D00220464914310860C0
:10039000FFF704FF002000BD02204249143108602D
:1003A000FFF7FCFE0120F6E700B53E48006820F0AC
:1003B0000F003C4908600846006840F003000860F0
:1003C0000220384914310860FFF7E8FE0120354962
:1003D00014310860FFF7E2FE022032491031086054
:1003E000FFF7DCFE01202F4910310860FFF7D6FE31
:1003F00000BD002106E04FF47A7200E0521E002A90
:10040000FCD1491C8142F6D3704770B506460C46B4
:100410001546FFF7CAFE08B9002070BD3046FFF749
:10042000FEFEFFF78DFF18B9FFF7BEFF0020F4E7CF
:100430002046FFF7F4FEFFF783FF2846FFF7EFFEA5
:10044000FFF77EFFFFF7B0FF0520FFF7D2FF012087
:10045000E3E770B504460D46FFF7A7FE08B9002094
:1004600070BD2046FFF7DBFEFFF76AFF18B9FFF704
:100470009BFF0020F4E72846FFF7D1FEFFF760FF5F
:10048000FFF793FE601CC0B2FFF7C9FEFFF758FFED
:10049000FFF7FAFE06460120FFF726FFFFF784FF6D
:1004A0003046DDE7000C014010B5002400BF19E024
:1004B00000226B21D020FFF7A8FF07221921D020AE
:1004C000FFF7A3FF00221A21D020FFF79EFF18227A
:1004D0001B21D020FFF799FF28221C21D020FFF7F5
:1004E00094FF641C0A2CE3DB10BD70471CB5044666
:1004F0003C21D020FFF7ADFF8DF800003B21D0203C
:10050000FFF7A7FF8DF801009DF800009DF801108E
:1005100040EA012000B220803E21D020FFF799FF61
:100520008DF802003D21D020FFF793FF8DF80300E6
:100530009DF802009DF8031040EA012000B260809F
:100540004621D020FFF785FF8DF804004521D020FB
:10055000FFF77FFF8DF805009DF804009DF805105A
:1005600040EA012000B2A0801CBD000070B5044626
:100570000D46E1B20B4802F056FE00BF0948008864
:1005800010F0800FFAD0204670BD00BF05480088EB
:1005900010F0200FFAD00348001D0088C0F30800B7
:1005A000704700000038014000B587B001210420E9
:1005B00001F0C7FD4FF47A70ADF814000020ADF8DB
:1005C0001000ADF81600ADF8120004A98E4801F035
:1005D000E7FE7020ADF800000120ADF80200002019
:1005E000ADF806000220ADF808006946864801F023
:1005F00014FF6946844801F052FF6946824801F0C1
:1006000097FF6946804801F0DAFF08217E4802F032
:100610002FFB08217C4802F034FB08217A4802F0C5
:100620003BFB0821784802F040FB0121764802F0AC
:10063000EFFA0121744802F0E3F907B000BD00B5FC
:1006400087B00121042001F06FFD0121084601F06F
:1006500078FD0820ADF80C0028208DF80F0003204D
:100660008DF80E0003A9694801F0AAFA082167482D
:1006700001F051FB4FF0804001F0BEFD42F20F70DF
:10068000ADF814004720ADF810000020ADF81600BA
:10069000ADF8120004A94FF0804001F081FE0C205B
:1006A000ADF800000020ADF802000120ADF8040014
:1006B0000020ADF806000320ADF8080069464FF0B1
:1006C000804002F0DFF80121880702F055FC01228A
:1006D0001121880702F0B9F90121880702F090F989
:1006E00007B000BD00B587B00121022001F029FD4F
:1006F000474801F081FDC720ADF8140048F69F403F
:10070000ADF810000020ADF81600ADF812008DF81D
:10071000180004A93E4801F043FE01213C4802F0C4
:100720002BFC012211463A4802F08FF901220221E6
:10073000374802F08AF90020ADF804000220ADF835
:1007400006000120ADF808000020ADF80A00ADF861
:100750000C0001A92E4802F095F801212C4802F066
:100760004FF907B000BD70B504460D46002C04DB00
:10077000002D02DB01202749087014F1FA0F05DA79
:1007800015F1FA0F02DA022022490870B4F57A7FD7
:1007900001DB4FF47A7414F57A7F00DA1E4CB5F55C
:1007A0007A7F01DB4FF47A7515F57A7F00DA1A4DFE
:1007B000002C07DBA1B2144802F0B0FB0021124864
:1007C00002F0AEFB002C08DA00210F4802F0A6FB75
:1007D000604281B20C4802F0A3FB002D07DBA9B2F6
:1007E000094802F09FFB0021074802F09DFB002D05
:1007F00008DA0021044802F095FB684281B2024801
:1008000002F092FB70BD00000008004000080140AB
:10081000000400400000002018FCFFFF2DE9F74F06
:1008200084B0884691464946049802F0D5FD01906F
:1008300003F077F80446104A104B02F041FF0646D9
:100840000F46404603F06DF804460D4A0D4B02F08A
:1008500037FF32463B46CDE9020102F08BFE82466D
:1008600003F075F80490049807B0BDE8F08F30B538
:100870000546039C002030BDAE47E17A14AEEF3F41
:100880007B14AE47E17A843F10B5002404604460D5
:100890008160C260036110BD2DE9F84F04460E4629
:1008A00015463146206802F0E9FD00906068009925
:1008B00002F092FD60602946206902F0E5FD814664
:1008C0006168E06802F0E0FD8246A068009902F0ED
:1008D000DBFD8346514602F07FFD8046494602F02B
:1008E000CDFD074602F0E5FFBDE8F88F2DE9F04F9A
:1008F00087B007460E469046B8F1010F01D10A367F
:1009000005E018F1010001D10A3E00E000BF3046C9
:1009100002F0B5FF059003F004F882460022324B46
:1009200002F0CEFE044603F012F88146304602F093
:10093000A6FF019002F0F5FF04462C4A2C4B02F072
:10094000BFFECDE904012B48006802F0EAFF04462F
:10095000264A294B02F0B4FECDE90201DDE9042369
:1009600002F008FE824602F0F2FF22490860B8F168
:10097000000F07D1484602F09CFF2049096808444F
:100980001E4908601D480068B0F57A7F03DD4FF40A
:100990007A701A4908601948006810F57A7F02DAFF
:1009A0001748164908604946386902F06DFD059000
:1009B0001248006802F063FF8346F96802F064FDA4
:1009C00082460C49B868096802F05EFD5146049001
:1009D00002F002FD0546059902F0FEFC044602F015
:1009E00068FF07B0BDE8F08F0000E03F9A99999941
:1009F0009999C93F080000209999E93F0400002017
:100A000018FCFFFF10B501F027FA4FF4803001F019
:100A100043FA01F080FA0446012C24D1102000F0A2
:100A2000A7FD022000F090FD002001F0B6FA0020A2
:100A300001F0C5FAA00201F0B9FA4FF4E011200468
:100A400001F08EFA012001F097FA00BF392001F081
:100A500046FA0028FAD0022001F091FA00BF01F016
:100A600097FA0828FBD110BD08B501211D2001F01F
:100A70005BFB0220ADF8000003208DF8020014207B
:100A80008DF803006946F64801F09AF80120ADF8A8
:100A9000000003208DF8020014208DF80300694641
:100AA000EF4801F08DF84020ADF8000018208DF8D7
:100AB000030003208DF802006946E94801F080F840
:100AC0008020ADF8000018208DF8030003208DF879
:100AD00002006946E24801F073F84FF48070ADF807
:100AE000000018208DF8030003208DF802006946ED
:100AF000DB4801F065F84FF40070ADF800001820F5
:100B00008DF8030003208DF802006946D44801F0F7
:100B100057F84FF48060ADF8000048208DF80300CE
:100B20006946CF4801F04CF84FF40060ADF8000082
:100B300048208DF803006946C94801F041F820209B
:100B4000ADF8000001208DF8020010208DF80300A0
:100B50006946C34801F034F808BD00B585B00121ED
:100B600044F2050001F0E0FA4FF40070ADF8100017
:100B700003208DF8120018208DF8130004A9B9483D
:100B800001F01EF84FF48060ADF8100003208DF8DE
:100B9000120004208DF8130004A9B24801F010F8E7
:100BA0004FF4E13000900020ADF80400ADF80600ED
:100BB000ADF80800ADF80C000C20ADF80A000122D9
:100BC00040F22551A84802F0CAFA6946A64802F048
:100BD0002EFA0121A44802F0B6FA05B000BD08B50E
:100BE0004FF4E06000F0B4FB1D208DF80000002001
:100BF0008DF8010001208DF802008DF80300684691
:100C000000F0ABFB1C208DF8000000208DF80100E7
:100C100003208DF8020001208DF80300684600F0E3
:100C20009CFB28208DF8000000208DF801008DF835
:100C3000020001208DF80300684600F08EFB08BD1D
:100C40001CB50121084601F06FFA4FF4806000F0F6
:100C500072FC00208DF804000C208DF805004FF484
:100C60008060009001208DF80600684600F0ECFBE3
:100C70000A21012001F0B8F84FF4006000F05BFC9D
:100C800000208DF804000C208DF805004FF4006062
:100C9000009001208DF80600684600F0D5FB0B217E
:100CA000012001F0A1F81CBD10B54FF4806000F0E8
:100CB00031FCB8B16D480078012805D16C48008836
:100CC000401C00B26A49088068480078022805D1B3
:100CD00067480088401E00B2654908804FF4806074
:100CE00000F029FC4FF4006000F014FCB8B15F483C
:100CF0000078012805D15F480088401C00B25D499A
:100D000008805A480078022805D15A480088401EB9
:100D100000B2584908804FF4006000F00CFC10BD90
:100D200010B540F22551504802F001FB18B14E4871
:100D300002F07DFAC4B210BD10B500204E4B1B78F6
:100D400013F0400F26D04D4B1B68190E4B4B1B6800
:100D5000C3F30742D343DBB299420CD159B9474B95
:100D60001B68C3F30721454B1B68DAB2D343DBB2E0
:100D7000994200D1084620B13F4B1B7813F0800FF9
:100D800008D13D4B1B7823F040033B4C23700023DC
:100D90003B4C237010BD10B501213A4802F0EFF82A
:100DA00001287BD13248B0F90000142802DD14205C
:100DB0002F4908802E48B0F90000334908800020F0
:100DC0002B4908802B48B0F90000142802DD1420BC
:100DD000284908802748B0F900002C4908800020E5
:100DE000244908802248008810B90846008828B99C
:100DF0001F48008828B11F48008810B905202449E1
:100E000008701B48B0F900001A49B1F90010401AE7
:100E10000A2809DC1648B0F900001649B1F900109B
:100E2000401A10F10A0F02DA052019490870012151
:100E3000144802F0B5F8FFF77FFF1649087016480E
:100E40000078401C14490870087800EBD0714910F4
:100E5000B0EB410123D02021014800F05CFF22E0EB
:100E6000000C014000080140003801400000002053
:100E700030000020320000205600002058000020E2
:100E80005C000020000400403400002036000020F8
:100E900055000020480000203A0000200AE02021F0
:100EA000FE4800F03AFFFE480078022802DB0020EE
:100EB000FB49087010BD2DE9FF470121880702F0AA
:100EC0005EF801287DD1F748007810F0800F26D019
:100ED000F448007820F01000F249087008460078C5
:100EE00010F00F0F04D10846007840F04000087061
:100EF000EC48007800F00F000E2805DAE948007889
:100F0000401CE84908700AE0E648007820F08000BC
:100F1000E44908700846007800F0F0000870E248E4
:100F2000E249086008460068FFF7E0FADF48006819
:100F30000088DF490880DD4800684088DD49088076
:100F4000DA4800688088DC490880D948B0F9000098
:100F500002F09EFC0646D94AD94B02F00BFB044630
:100F600002F0C0FC00B2D2490880D248B0F90000BB
:100F700002F08EFC06464FF03332D24B02F0FAFA02
:100F8000044602F0AFFC00B2CA490880CA48008893
:100F9000143000B2C8490880C548B0F9000002F01A
:100FA0006EFC04464FF08C4102F0A4FAC64908607A
:100FB0000846006802F0B5FC064603F08BFB0446C9
:100FC00000E0DFE002F0C3FCBF49086008460068AB
:100FD00002F0A7FC06460022BC4B02F071FB8046E3
:100FE000BB4ABC4B02F0DCFB044602F0B0FCB64945
:100FF0000860B148B0F9000002F041FC824602F0FE
:1010000090FC80464FF06632B34B02F0C9FB0646B7
:10101000B24AB34B02F054FB044602F098FCB149CB
:10102000086008460168B048006802F0D5F9AE498A
:101030000860A548006880F00044AA48214602687C
:10104000AA480068FFF7EAFBA8490860A8480078AA
:10105000022815D1A748B0F90000002810DDA648E5
:10106000B0F9000000280BDDA2480088404200B221
:10107000A0490880A0480088404200B29E490880EC
:101080009E480078182803D101209D4908702BE064
:101090009A4800784A2803D1FF209949087023E034
:1010A00096480078102809D1872096490860404268
:1010B0009549086003209249087015E08F48007830
:1010C0005A280AD16FF086008E49086087208E4921
:1010D000086004208A49087006E0002089490860F9
:1010E00089490860864908708048006880F000449B
:1010F0007C48214602688548FFF7CEFB844908609A
:101100007D48B0F900007B4AB2F9002081187C4884
:1011100090F900207F48FFF7E9FB7F4908607C4891
:101120000068096808447D4908600A461268764BE1
:101130001B68D118794A1268724B1B68D018FFF7E8
:1011400012FB6948006802F0ECFB04460D465E485D
:10115000006880F0004A504602F0E3FB06460F4666
:101160006248006802F0DDFB804642460B466CA0F8
:10117000CDE90067CDE9024502F0BAFD01218807FB
:1011800001F00EFF1021880601F0F9FE00287DD045
:101190006848006878B10221480701F01DFE00216F
:1011A0004FF0804001F0B6FE3E48007840F010005D
:1011B0003C49087071E04FF0804001F0CAFE5E4982
:1011C000088000214FF0804001F006FE354800788D
:1011D00010F0100F59D03348007810F0800F3FD036
:1011E00055480088B0F5967F0DDD53480088B0F56E
:1011F000487F08DA514800684000504908600846B6
:101200000068086041E04C480088B0F5AF6F0FDD22
:1012100049480088B0F5E16F0ADA484800684000A4
:10122000464908600846006840F0010008602CE06C
:101230004148008840F69801884226DD3E480088F3
:1012400040F62821884220DA3D480078401C3C497D
:1012500008701448007800F0F0001249087014E09B
:101260003548008841F2680188420EDD3248008826
:1012700041F25C21884208DA0A48007840F0800098
:101280000849087000202E49087000E05EE005481B
:10129000007820F010000349087053E0000C014072
:1012A0003A000020560000201000002064000020BA
:1012B0005E000020600000201C0000209A9999998F
:1012C000999963C0335378C02C0000200080664099
:1012D0004AD8124DFB210940666630407B14AE4768
:1012E000E17A843F24000020200000200C00002030
:1012F00000000020340000203600002048000020BC
:10130000550000204C0000205000002088000020E4
:101310003C0000209C0000204000002044000020F1
:10132000252E316C662C252E316C662C252E316CC9
:10133000660D0A000C0121426800002058000020C0
:101340005C0000201121880701F016FEBDE8FF8730
:1013500031490143314A1160704770B500210023C3
:101360000F22C4780CB32D4C246804F4E064C4F557
:10137000E064210AC1F10403CA40447804FA03F18D
:101380008478144021430901254C0678A15504783E
:1013900004F01F050124AC4005786D114FF0E026E4
:1013A00006EB8505C5F8004109E0047804F01F0547
:1013B0000124AC401B4D0678761145F8264070BDDF
:1013C000194A0A400243154B1B1F1A60704739B176
:1013D000124A121D12680243104B1B1D1A6006E0D0
:1013E0000E4A121D126882430C4B1B1D1A60704777
:1013F000042808D14FF0E021096941F004014FF0C1
:10140000E022116107E04FF0E021096921F00401B9
:101410004FF0E022116170470000FA050CED00E08A
:1014200000E400E080E100E080FFFF1F002044496D
:101430000860091D0860091D0860091D0860414811
:101440003F4914310860704700213D498279002AE4
:101450003AD00A46126803689A430B461A600A1D7E
:10146000126803689A430B1D1A60027911440A68D6
:1014700003681A430A60324A0832126803689A43C2
:101480002F4B08331A601A1D126803689A432C4BBD
:101490000C331A604279102A0ED11A1F12680368A1
:1014A0001A43274B08331A601A1D126803681A433F
:1014B000234B0C331A600DE02149427911440A682C
:1014C00003681A430A6005E0027911440A68036858
:1014D0009A430A6070470021016001710C2141713B
:1014E0000021817170471649103109680143144A7F
:1014F00010321160704701460020114A1432126800
:101500000A4201D0012000E0002070470C4914314C
:1015100008607047014600200022094B1B6803EA5F
:101520000102074B14331B680B4202D00AB10120A1
:1015300000E0002070470249143108607047000045
:1015400000040140FFFF0F0001460020FE4A106822
:1015500000F03800084310607047FB49096821F02B
:101560000801F94A1160114609680143116070478A
:10157000F549096821F01001F34A11601146096824
:10158000014311607047F148EF494860F0484860F6
:101590007047EE48EC494860ED4848607047EA48BB
:1015A000006940F08000E84908617047E64800693A
:1015B00040F08000E449086170470420E249C968AE
:1015C00001F00101012901D101200EE0DE49C968C5
:1015D00011F0040F01D0022007E0DB49C96811F0C7
:1015E000100F01D0032000E00420704700B5024630
:1015F0000423FFF7E2FF034603E0FFF7DEFF0346A5
:10160000521E012B01D1002AF7D102B90523184639
:1016100000BD30B5044604254FF43020FFF7E6FF47
:101620000546042D17D1C848006940F00200C6499C
:10163000086108464461006940F0400008614FF4C9
:101640003020FFF7D3FF0546BF48006941F6FD7122
:101650000840BD490861284630BD10B504244FF448
:101660003020FFF7C3FF0446042C16D1B6480069AA
:1016700040F00400B44908610846006940F04000A9
:1016800008614FF43020FFF7B1FF0446AE4800690F
:1016900041F6FB710840AC490861204610BD00B519
:1016A00002460423FFF789FF034603E0FFF785FFA7
:1016B0000346521E012B01D1002AF7D102B905239E
:1016C000184600BD10B504244FF43020FFF7E7FFA3
:1016D0000446042C16D19C48006940F004009A4945
:1016E00008610846006940F0400008614FF430206E
:1016F000FFF7D5FF04469448006941F6FB710840A6
:1017000091490861204610BD00208F49C96911F038
:10171000020F01D0012000E00020704730B5A52560
:101720000424FFF7F1FF00B100254FF43020FFF74C
:101730005DFF0446042C3AD184488349886084487C
:1017400088600846006940F020000861084600698A
:1017500040F0400008614FF43020FFF747FF044697
:10176000042C1BD17848006941F6DF7108407649A6
:1017700008610846006940F010000861754805805E
:10178000E002FFF733FF0446052C10D06E480069D5
:1017900041F6EF7108406C49086108E0052C06D05D
:1017A0006948006941F6EF710840674908612046C1
:1017B00030BDF0B504460D4604260027F002FFF7C1
:1017C00015FF0646042E22D15F48006940F0010053
:1017D0005D4908612580F002FFF708FF0646042EE8
:1017E0000ED1A71C280C3880F002FFF7FFFE06463A
:1017F0005548006941F6FE7108405349086106E00A
:101800005148006941F6FE7108404F490861304671
:10181000F0BD70B504460D460426F002FFF7E6FE63
:101820000646042E11D14848006940F0010046499F
:1018300008612580F002FFF7D9FE0646424800699C
:1018400041F6FE71084040490861304670BD70B5F0
:1018500005460E460424E002FFF7C8FE0446042CA9
:1018600017D13A4838498860394888600846006985
:1018700040F0100008612E80E002FFF7B7FE04463A
:10188000052C06D03048006941F6EF7108402E491A
:101890000861204670BD2DE9F04304464FF6FF76FF
:1018A0003746B046B1460425E443E6B2C4F3072701
:1018B000C4F307484FEA1469E802FFF797FE0546AC
:1018C000042D40D12148204988602148886008467D
:1018D000006940F010000861FF2E06D01D48083056
:1018E0000680E802FFF782FE0546042D08D1FF2F8F
:1018F00006D018480A300780E802FFF777FE054651
:10190000042D0AD1B8F1FF0F07D012480C30A0F80F
:101910000080E802FFF76AFE0546042D0AD1B9F1FE
:10192000FF0F07D00B480E30A0F80090E802FFF739
:101930005DFE0546052D06D00348006941F6EF71AE
:1019400008400149086107E0002002402301674583
:10195000AB89EFCD00F8FF1F2846BDE8F08330B516
:10196000054604244FF43020FFF740FE0446042CC3
:1019700041D15F485F4988605F48886008460069D8
:1019800040F0200008610846006940F0400008610E
:101990004FF43020FFF72AFE0446042C22D155488C
:1019A000006941F6DF710840524908610846006944
:1019B00040F0100008611DB100205049088002E08D
:1019C000A5204E4908804FF43020FFF70FFE044653
:1019D000052C10D04748006941F6EF710840454991
:1019E000086108E0052C06D04248006941F6DF7125
:1019F000084040490861204630BDF0B505460E4616
:101A0000174604243A483B4988603B488860E00216
:101A1000FFF7ECFD0446042C19D13648006940F06C
:101A200010003449086147F0F80030432843334937
:101A3000891C0880E002FFF7D9FD0446052C06D07A
:101A40002C48006941F6EF7108402A490861204698
:101A5000F0BD2848C069800870472648006A704772
:101A600000202449096811F0200F01D0012000E076
:101A70000020704729B11F4A126902431D4B1A61A9
:101A800004E01C4A126982431A4B1A6170470146EE
:101A90000020012908D1174AD26912F0010F01D0A4
:101AA000012008E0002006E0124AD2680A4201D074
:101AB000012000E0002070470E49C86070470420F4
:101AC0000C49C96801F00101012901D101200EE092
:101AD0000849C96811F0040F01D0022007E0054948
:101AE000C96811F0100F01D0032000E004207047F6
:101AF0002301674500200240AB89EFCD00F8FF1FAE
:101B000010B50446CA48844208D10121042000F0DF
:101B100025FB0021042000F021FB46E0C54884425B
:101B200008D10121082000F019FB0021082000F055
:101B300015FB3AE0C048844208D10121102000F092
:101B40000DFB0021102000F009FB2EE0BB48844271
:101B500008D10121202000F001FB0021202000F00D
:101B6000FDFA22E0B648844208D10121402000F06D
:101B7000F5FA0021402000F0F1FA16E0B148844265
:101B800008D10121802000F0E9FA0021802000F036
:101B9000E5FA0AE0AC48844207D10121801500F043
:101BA000DDFA0021A01500F0D9FA10BD10B5012111
:101BB000084600F0D3FA0021012000F0CFFA10BD52
:101BC0002DE9F041024600250026002000230024D4
:101BD000002791F803C00CF00F0591F803C01CF02A
:101BE000100F03D091F802C04CEA0505B1F800C00F
:101BF0001CF0FF0F31D0146800202BE04FF0010CD7
:101C00000CFA00F3B1F800C00CEA03069E4220D1A2
:101C100083004FF00F0C0CFA03F7BC4305FA03FCEA
:101C20004CEA040491F803C0BCF1280F06D14FF030
:101C3000010C0CFA00FCC2F814C00AE091F803C0D1
:101C4000BCF1480F05D14FF0010C0CFA00FCC2F8B2
:101C500010C0401C0828D1D31460B1F800C0BCF1FA
:101C6000FF0F34DD546800202EE000F1080C4FF027
:101C7000010808FA0CF3B1F800C00CEA03069E4212
:101C800021D183004FF00F0C0CFA03F7BC4305FA87
:101C900003FC4CEA040491F803C0BCF1280F05D101
:101CA00000F1080C08FA0CF8C2F8148091F803C08F
:101CB000BCF1480F07D100F1080C4FF0010808FAF9
:101CC0000CF8C2F81080401C0828CED35460BDE840
:101CD000F0814FF6FF710180022181700421C170F3
:101CE00070470246002093680B4201D0012000E0BB
:101CF000002070470146886880B270470246002085
:101D0000D3680B4201D0012000E00020704701465B
:101D1000C86880B2704701617047416170470AB17D
:101D2000016100E041617047C16070474FF480324B
:101D30000A438261816182618269826970470246D9
:101D40000020424B18684FF68073184040EA02109A
:101D500008433E4B186070473D49C8617047F0B575
:101D60000A46002300240021002500F00046B6F1B9
:101D7000004F02D1354EF16901E0344E7168C0F375
:101D8000034583B200F44016B6F5401F08D121F098
:101D900070612E4E766826F070662C4F7E6012E0E1
:101DA00000F48016B6F5801F06D1032606FA05F466
:101DB000A14341F0706106E0460D360103FA06F6D4
:101DC000B14341F0706122B1460D360103FA06F6C7
:101DD000314300F00046B6F1004F02D11B4EF161D5
:101DE00001E01A4E7160F0BD30B500228B071C0F68
:101DF0000F2303FA04F2154B08338C1053F82430E8
:101E00009343124C08348D1044F8253023468C102F
:101E100053F824308C07240F00FA04F423430B4CAE
:101E200008348D1044F8253030BD0A4908607047E9
:101E300000080140000C0140001001400014014066
:101E400000180140001C014000200140000001403A
:101E500000002042DC002042DC48006840F0010025
:101E6000DA49086008464068D9490840D7494860BF
:101E700008460068D7490840D44908600846006809
:101E800020F4802008600846406820F4FE00486086
:101E90004FF41F0088607047CC49096821F48031F5
:101EA000CA4A11601146096821F480211160B0F519
:101EB000803F03D0B0F5802F0ED106E0C3490968FA
:101EC00041F48031C14A116007E0C049096841F41A
:101ED000A021BE4A116000E000BF00BF704710B5EE
:101EE00001460022002300204A11012A02D1B74CEA
:101EF000236806E0022A02D1B44C236A01E0B34C05
:101F0000636A01F01F02012494401C4201D00120A9
:101F100000E0002010BD70B500240025002600BFA1
:101F20003120FFF7DCFF0646641CB4F5A06F01D03A
:101F3000002EF5D03120FFF7D2FF08B1012500E0D7
:101F40000025284670BD01460020A04A106820F0F8
:101F5000F80040EAC100106070479F490860704770
:101F600002460020994B586820F47C1042EA010395
:101F70001843964B5860704797490866704701466A
:101F80000020924A506820F00300084350607047D8
:101F90008E48406800F00C007047014600208B4AD4
:101FA000506820F0F0000843506070470146002060
:101FB000864A506820F4E06008435060704701464C
:101FC0000020824A506820F4605040EAC10050600E
:101FD000704729B17D4A527A02437C4B5A7206E01F
:101FE0007A4A527AC343DBB21A40784B5A7270472E
:101FF0007A490860704701460020744A506820F40E
:1020000040400843506070470021754A11706F4A84
:1020100082F82010012802D0042808D103E0012111
:102020006F4A117004E005216D4A117000E000BF95
:1020300000BF70476B49086070476449096A0143F3
:10204000624A11627047674944390860704730B589
:1020500000210022002400235C4D6D6805F00C0176
:1020600021B1042905D0082923D105E05E4D056082
:1020700022E05D4D05601FE0544D6D6805F470125F
:10208000524D6D6805F48034022505EB92421CB96F
:10209000564D554305600BE04C4D6D6815F4003FFF
:1020A00003D0524D5543056002E04F4D5543056046
:1020B00002E04D4D056000BF00BF444D6D6805F066
:1020C000F00109094A4D6B5C0568DD4045603F4DF4
:1020D0006D6805F4E061090A454D6B5C4568DD40BB
:1020E00085603A4D6D6805F46051C90A404D6B5CDE
:1020F0004568DD40C560354D6D6805F44041890B8C
:102100003C4D6B5CC568B5FBF3F5056130BD29B18D
:102110002E4A526902432D4B5A6104E02B4A526900
:1021200082432A4B5A61704729B1284A9269024377
:10213000264B9A6104E0254A92698243234B9A61B7
:10214000704729B1214AD2690243204BDA6104E089
:102150001E4AD26982431D4BDA61704729B11B4A7E
:10216000D2680243194BDA6004E0184AD26882430D
:10217000164BDA60704729B1144A12690243134BB7
:102180001A6104E0114A12698243104B1A617047C8
:1021900014494039086070470F49C86470470B49BB
:1021A000C87170470948406A40F08070074948622A
:1021B000704701460020054A92680A4201D001207A
:1021C00000E000207047014988727047001002400B
:1021D0000000FFF8FFFFF6FE00004242D800424236
:1021E000201002408004424200127A0000093D00A3
:1021F0006A0000207A00002010B50446FE488442A0
:1022000008D10121C014FFF7A9FF0021E014FFF756
:10221000A5FFC4E0B4F1804F08D101210846FFF7C3
:10222000AAFF00210120FFF7A6FFB8E0F34884428F
:1022300008D101210220FFF79EFF00210220FFF7B5
:102240009AFFACE0EE48844208D101210420FFF758
:1022500092FF00210420FFF78EFFA0E0E9488442AE
:1022600008D101210820FFF786FF00210820FFF791
:1022700082FF94E0E448844208D101211020FFF756
:102280007AFF00211020FFF776FF88E0DF488442C4
:1022900008D101212020FFF76EFF00212020FFF749
:1022A0006AFF7CE0DA48844208D101214014FFF73C
:1022B00055FF00216014FFF751FF70E0D5488442BC
:1022C00009D10121C804FFF749FF00214FF4002084
:1022D000FFF744FF63E0D048844209D1012108059B
:1022E000FFF73CFF00214FF48010FFF737FF56E067
:1022F000CA48844209D101214805FFF72FFF002178
:102300004FF40010FFF72AFF49E0C548844208D186
:1023100001214020FFF72FFF00214020FFF72BFF76
:102320003DE0C048844208D101218020FFF723FF0F
:1023300000218020FFF71FFF31E0BB48844208D115
:1023400001218015FFF717FF0021A015FFF713FFEC
:1023500025E0B648844209D101210804FFF7FEFEBA
:1023600000214FF48030FFF7F9FE18E0B0488442B6
:1023700009D101214804FFF7F1FE00214FF400309C
:10238000FFF7ECFE0BE0AB48844208D10121880442
:10239000FFF7E4FE00214FF48020FFF7DFFE10BDC1
:1023A00000220288944B98420ED0994B98420BD051
:1023B000B0F1804F08D0914B984205D0904B984295
:1023C00002D0904B984204D14FF68F731A404B883D
:1023D0001A438D4B984207D08C4B984204D04FF64D
:1023E000FF431A40CB881A4302808B8883850B8871
:1023F0000385814B98420BD0854B984208D08B4B7C
:10240000984205D08A4B984202D08A4B984201D11B
:102410000B7A038601238382704770B50024002263
:102420000023058C4FF6FE7635400584028C8388A8
:10243000048B4FF68F752C40B51E2C400D882C4315
:10244000751E2A400D892A434D882A436A4DA842A9
:102450000BD06F4DA84208D0744DA84205D0744DE2
:10246000A84202D0734DA84213D14FF6F7752A4007
:102470004D892A434FF6FB752A408D882A434FF633
:10248000FF652B404FF6FF552B408D892B43CD899F
:102490002B4383800483CD888586028470BD70B50C
:1024A000002400220023058C4FF6EF76354005848A
:1024B000028C8388048B48F6FF752C404FF6FF454D
:1024C0002C400D882D0644EA15444FF6DF752A404E
:1024D0000D892D0542EA15424D882D0542EA154227
:1024E000454DA84202D04A4DA8421BD14FF67F75F8
:1024F0002A404D892D0542EA15424FF6BF752A4004
:102500008D882D0542EA15424FF6FF352B404FF2DC
:10251000FF752B408D89AD0443EA1543CD89AD0489
:1025200043EA154383800483CD880587028470BD08
:1025300070B5002400220023058C4FF6FF6635405D
:102540000584028C8388848B4FF68F752C404FF660
:10255000FC752C400D882C434FF6FF552A400D8901
:102560002D0642EA15424D882D0642EA1542224DBB
:10257000A84202D0264DA8421BD14FF2FF752A4037
:102580004D892D0642EA15424FF6FF352A408D88C7
:102590002D0642EA15424EF6FF752B404DF6FF75AB
:1025A0002B408D892D0543EA1543CD892D0543EA3E
:1025B000154383808483CD888587028470BD70B580
:1025C000002200230024058C4EF6FF76354005845A
:1025D000038C8488828B48F6FF752A404FF6FF45AE
:1025E0002A400D882D0642EA15424DF6FF752B4014
:1025F0000D892D0720E00000002C01400004004060
:1026000000080040000C0040001000400014004092
:1026100000340140004C0140005001400054014092
:1026200000180040001C0040002000400040014015
:10263000004401400048014043EA15434D882D07FE
:1026400043EA1543F84DA84202D0F84DA84206D1FE
:102650004BF6FF752C408D89AD0544EA1544848006
:102660008283CD88A0F84050038470BD828B4FF2E6
:10267000FF331A408283828B0B0642EA1342828325
:102680007047F0B50C461546002200210026078C45
:102690004EF6FF7C07EA0C070784828B018C270724
:1026A0003E0C40F6FF473A402F0642EA17421F070A
:1026B00042EA1742DC4FB8420ED0DC4FB8420BD092
:1026C000B0F1804F08D0DA4FB84205D0D94FB842A8
:1026D00002D0D94FB84206D14DF6FF77394046F4C3
:1026E0008057394305E047F6FF57394044F4805797
:1026F000394382830184F0BD828B4FF6F3731A4015
:102700008283828B0A4382837047F0B50C4615465C
:10271000002200210026078C4FF6FF6C07EA0C0709
:102720000784828B018C27063E0C4FF60C773A40CB
:102730001F0545EA17473A43BB4FB8420ED0BB4F7F
:10274000B8420BD0B0F1804F08D0B94FB84205D095
:10275000B84FB84202D0B84FB84206D14FF6FF5733
:10276000394046F48077394305E04FF2FF5739404E
:1027700044F48077394382830184F0BD028B4FF2A9
:10278000FF331A400283028B0B0642EA1342028394
:102790007047F0B50C461546002200210026078C34
:1027A0004FF6EF7C07EA0C070784028B018C2705A4
:1027B0003E0C40F6FF473A401F0742EA17422F06F9
:1027C00042EA1742984FB8420ED0984FB8420BD009
:1027D000B0F1804F08D0964FB84205D0954FB8421F
:1027E00002D0954FB84206D14FF6DF77394046F018
:1027F0001007394305E04FF65F77394044F0100782
:10280000394302830184F0BD028B4FF6F3731A4003
:102810000283028B0A4302837047F0B50C461546CB
:1028200000220021068C4FF6FE773E400684028B84
:10283000018C4FF60C7632401E0545EA16463243AF
:10284000794EB0420ED0794EB0420BD0B0F1804FED
:1028500008D0774EB04205D0764EB04202D0764EC8
:10286000B04206D14FF6FD76314044F001063143C7
:1028700005E04FF6F576314044F00106314302831E
:102880000184F0BD70B505460C46674885420ED000
:10289000664885420BD0B5F1804F08D06448854228
:1028A00005D06448854202D06348854200D100E0EB
:1028B00000BF208850B92389A28861882846FFF785
:1028C000ACFFE1882846FFF79FFF25E02088042819
:1028D0000AD12389A28861882846FFF75AFFE18838
:1028E0002846FFF74BFF17E0208808280AD12389E4
:1028F000A28861882846FFF708FFE1882846FFF78D
:10290000FBFE09E02389A28861882846FFF7B9FE0B
:10291000E1882846FFF7AAFE70BD2DE9F041054683
:102920000C4600260127608808B9022600E0002630
:10293000A088012801D1022700E001272088A0B942
:102940002389A28861882846FFF767FFE188284627
:10295000FFF75AFF23893A4631462846FFF719FF09
:10296000E1882846FFF70AFF13E02389A2886188DF
:102970002846FFF70EFFE1882846FFF7FFFE238970
:102980003A4631462846FFF748FFE1882846FFF7D8
:102990003BFFBDE8F0810A884B881A438B881A43B5
:1029A000CB881A430B891A434B891A438B891A43E4
:1029B000A0F8442070474FF6FF718180002101800C
:1029C000C180418001727047002101804180818077
:1029D000C180018141818181C181704700210180D5
:1029E0004180012181800021C18001817047002147
:1029F000018041808180C180018141818181704756
:102A000021B1028842F00102028004E002884FF600
:102A1000FE731A400280704781B1B0F8442042F43E
:102A20000042A0F844200FE0002C01400034014097
:102A30000004004000080040000C0040B0F84420B2
:102A4000C2F30E02A0F84420704710B51AB1838972
:102A50000B43838104E08389CC43A4B22340838168
:102A600010BD8182704741EA0203A0F848307047E8
:102A700010B51AB183890B43838104E08389CC4369
:102A8000A4B22340838110BD01894FF6F872114032
:102A9000018170470A46002101894FF68F73194062
:102AA00011430181704730B504460D462946204642
:102AB000FFF7F0FF208940F00700208130BD2DE9AD
:102AC000F04104460D4616461F46602D06D13B4692
:102AD000012231462046FFF75CFE05E03B4601221D
:102AE00031462046FFF799FE29462046FFF7D2FFE0
:102AF000208940F007002081BDE8F08130B50C4608
:102B000000210189C9B21D0642EA15452543294322
:102B1000018130BD2DE9F04105460E461746984625
:102B2000002443463A4631462846FFF7E7FF2C8902
:102B30004FF6F870044044F007044FF68F700440DD
:102B400044F070042C81BDE8F081F0B504460D46D8
:102B500016461F463B46324629462046FFF7CEFF23
:102B6000208940F480402081F0BD01858282704739
:102B70000A46002101884FF68F73194011430180E6
:102B80007047F0B50C4615461E4600210022002372
:102B90000189028B038C4FF6F877394021434FF6B9
:102BA000FC473A4040F201173A434FF6DD773B408D
:102BB000370545EA17473B43018102830384F0BD93
:102BC0000A460021018B4FF68F7319401143018390
:102BD00070470A460021018B48F6FF73194013061F
:102BE00041EA1341018370470A460021818B4FF669
:102BF0008F7319401143818370470A460021818BEE
:102C000048F6FF731940130641EA13418183704768
:102C100021B1028842F08002028004E002884FF66F
:102C20007F731A400280704721B1828842F004020B
:102C3000828004E082884FF6FB731A4082807047DE
:102C400021B1828842F00802828004E082884FF637
:102C5000F7731A408280704721B1828842F00102E6
:102C6000828004E082884FF6FE731A4082807047AB
:102C70000A460021018B4FF6F77319401143018377
:102C800070470A460021018B4FF2FF73194013066B
:102C900041EA1341018370470A460021818B4FF6B8
:102CA000F77319401143818370470A460021818BD5
:102CB0004FF2FF731940130641EA134181837047B5
:102CC0000A460021018B4FF6FB7319401143018323
:102CD00070470A460021018B4FF6FF331940130657
:102CE00041EA1341018370470A460021818B4FF668
:102CF000FB7319401143818370470A460021818B81
:102D00004FF6FF331940130641EA134181837047A0
:102D10000A460021018B4FF67F731940114301834E
:102D200070470A460021018BC1F30E01130641EAE8
:102D30001341018370470A460021818B4FF67F7350
:102D400019401143818370470A460021818BC1F3EA
:102D50000E01130641EA1341818370470A460021A0
:102D6000018C4FF6FD7319401143018470470A46E8
:102D70000021018C4FF6F77319401143018470470D
:102D80000A460021018C4FF6DF731940130541EA12
:102D90001341018470470A460021018C4FF67F736E
:102DA0001940130541EA1341018470470A46002186
:102DB000018C4FF6FF531940130641EA1341018479
:102DC00070470A460021018C4FF2FF731940130629
:102DD00041EA1341018470470A460021018C4DF6F7
:102DE000FF731940130741EA13410184704730B55E
:102DF000002301248C40A3B2048CDD43ADB22C40EF
:102E00000484048C02FA01F5ADB22C43048430BD75
:102E100030B5002304248C40A3B2048CDD43ADB252
:102E20002C400484048C02FA01F5ADB22C430484D6
:102E300030BD70B503460020002418461830012527
:102E40008D40ACB21D8CE643B6B235401D8409B14D
:102E5000082909D100EB6100056825F070050560BF
:102E60000568154305600CE00D1FADB200EB650071
:102E7000056825F4E04505600568160645EA16452F
:102E8000056070BD21B1028842F00202028004E0B8
:102E900002884FF6FD731A400280704721B1028804
:102EA00042F00402028004E002884FF6FB731A40ED
:102EB0000280704721B1828842F08002828004E063
:102EC00082884FF67F731A408280704702884FF6DF
:102ED000F7731A40028002880A4302807047828892
:102EE0004FF68F731A40828082880A43828070472F
:102EF00002894FF6F8731A40028102890A4302815F
:102F0000704702894FF67F731A40028102890A4393
:102F10000281704781847047818570478186704740
:102F20000187704781877047A0F84010704702887A
:102F30004FF6FF431A40028002880A43028070471E
:102F40000146888E70470146088F70470146888F7A
:102F500070470146B1F8400070470146888C7047C1
:102F60000146088D704702460020138A0B4201D0AB
:102F7000012000E000207047CA430282704730B54C
:102F80000246002000230024158A05EA01039589E2
:102F900005EA010413B10CB1012000E0002030BDAE
:102FA000CA4302827047000010B50446FC488442C0
:102FB00009D101218803FFF7D1F800214FF48040A7
:102FC000FFF7CCF832E0F748844209D101214804E8
:102FD000FFF7D1F800214FF40030FFF7CCF825E0DF
:102FE000F148844209D101218804FFF7C4F8002187
:102FF0004FF48020FFF7BFF818E0EC48844209D175
:103000000121C804FFF7B7F800214FF40020FFF7B3
:10301000B2F80BE0E648844208D101210805FFF729
:10302000AAF800214FF48010FFF7A5F810BD2DE994
:10303000F04786B005460E460024A24600BFA146D2
:103040000027B08900B100BF2F462C8A4CF6FF70D4
:103050000440F08804432C82AC894EF6F3100440FF
:10306000B08831890843718908430443AC81AC8A34
:103070004FF6FF400440B0890443AC8201A8FEF73C
:10308000E6FFC748874202D1DDF810A001E0DDF875
:103090000CA0A88910F4004F08D00AEBCA0000EB7E
:1030A0000A1031684900B0FBF1F807E00AEBCA00EA
:1030B00000EB0A1031688900B0FBF1F86420B8FB1E
:1030C000F0F004012009642101FB1089A88910F4A3
:1030D000004F08D0322000EBC900B0FBF1F000F047
:1030E0000700044308E0322000EB09106421B0FB24
:1030F000F1F000F00F0004432C8106B0BDE8F0872A
:103100004FF41651016000218180C18001810C21A2
:10311000418100218181704710B502460020108A4C
:103120004FF2FF0318400B884C8823438C882343BD
:10313000CC8823431843108210BD002101804180B8
:103140008180C180704721B1828942F4005282811E
:1031500004E082894DF6FF731A4082817047F0B512
:1031600003460024002600250020A1F510676A3FD1
:1031700000D100BF1846C1F3421401F01F06012719
:1031800007FA06F5012C01D10C3004E0022C01D124
:10319000103000E014301AB107682F43076002E0D6
:1031A0000768AF430760F0BD10B51AB1838A0B43BF
:1031B000838204E0838ACC43A4B22340838210BD7F
:1031C000028A4FF6F0731A400282028A0A43028290
:1031D000704782894FF2FF731A40828182890A43C5
:1031E0008281704721B1828942F00202828104E02B
:1031F00082894FF6FD731A4082817047028A4FF62A
:10320000DF731A400282028A0A430282704721B1A8
:10321000028A42F48042028204E0028A4BF6FF7383
:103220001A4002827047C1F308028280704701464B
:103230008888C0F308007047818941F001018181CD
:103240007047028BD2B20283028B42EA01220283D0
:103250007047028B02F47F420283028B0A4302838F
:10326000704721B1828A42F02002828204E0828A81
:103270004FF6DF731A408282704721B1828A42F092
:103280001002828204E0828A4FF6EF731A40828233
:10329000704721B1828A42F00802828204E0828A69
:1032A0004FF6F7731A408282704721B1828942F447
:1032B0000042828103E08289C2F30E02828170475C
:1032C00021B1828A42F40062828204E0828A4FF253
:1032D000FF731A4082827047828A4FF6FB731A404E
:1032E0008282828A0A438282704721B1828A42F0B6
:1032F0000202828204E0828A4FF6FD731A408282C3
:10330000704702460020B1F5007F00D100BF13884E
:103310000B4201D0012000E00020704701F4007250
:10332000B2F5007F00D100BFCA430280704770B57C
:1033300002460024002300250020A1F510666A3E05
:1033400000D100BFC1F3421501F01F03012606FAA8
:1033500003F3012D02D19689334006E0022D02D1FC
:10336000168A334001E0968A33400C12012606FA91
:1033700004F41688344013B10CB1012000E00020A1
:1033800070BD10B500220023A1F510646A3C00D185
:1033900000BF0A1201249440A3B2DC43048010BD94
:1033A000003801400044004000480040004C00400C
:1033B000005000400648804706480047FEE7FEE709
:1033C000FEE7FEE7FEE7FEE7FEE7FEE7FEE7FEE7D5
:1033D0004501000831010008F0B480EA0102D20F73
:1033E0004300B3EB410F02D20346084619464B0097
:1033F00042D0C30DDDB2C1F3C7542C1B202C35DAEB
:10340000C1F3160141F4000502B16D42C4F120067A
:1034100005FA06F125412844B3EBD05F23D0C2B1B1
:10342000012CA0EBC35009DCF0BC4FF0004202EAD3
:10343000C35200F50000DBB200F026BB400000F1F3
:10344000807000EBC350A0F1807040EAD170490059
:1034500009E0490841EAC071A0EBC35000F5000043
:10346000400800EBC350F0BC00F005BB5142012303
:1034700003EB4101801AF6E7F0BC704781F0004190
:10348000AAE780F00040A7E780EA010210B502F049
:103490000042400026D04B0023D04FEA106101EBE0
:1034A0001361C0F35600C3F3560340F4000043F425
:1034B0000003A0FB0330A1F17F014FEA00401C0490
:1034C00001D000F1010050EA134001D44000491E30
:1034D000C3B20C0604EBD010401C4008802B02D075
:1034E00003E0002010BD20F00100002900DA0020D8
:1034F000104310BD80EA010202F0004330B430F006
:10350000004221F0004015D0A0B1C0F3C755C2F36E
:10351000C754C2F31601C0F31600651B41F4000145
:1035200040F400007D35814201D36D1C00E049006C
:10353000002D02DA30BC002070474FF40002002456
:10354000814201D3091A144352084FEA4101F7D1CD
:1035500051B1814202D14FF0004105E002D24FF05B
:10356000010101E06FF0010104EBC55030BC1844CB
:1035700000F081BA2DE9FE4F074681EA0300C00F33
:103580000E46019021F0004123F00044B81AA141F9
:1035900005D23846314617461E460B46024623F0F2
:1035A0000040104304D13846314603B0BDE8F08FE7
:1035B000350DC5F30A00C3F30A510290401A00907A
:1035C000402868DAC3F3130040F4801B0198924648
:1035D00020B10023D2EB030A63EB0B0B0098594692
:1035E000C0F14002504600F015FA80460C465046A5
:1035F0005946009A00F02DFAC0197141EF1785EA7B
:1036000011533B4340D0019A52B3009A012A11DC76
:103610000022801A4FF0004361EB055103EA055385
:103620008018CDE9002341F580114246234600F081
:1036300065FABAE72E050025401B61EB060140192B
:1036400041F58012001852412818A6F5001343EBEB
:10365000020140EAD470294318EB0808644113E0E2
:1036600064084FEA38084FF0000244EAC0744FEA99
:103670000553801A61EB0301801841F58011490858
:103680004FEA3000801859414246234603B0BDE856
:10369000F04F00F026BA0198012240000023D0EB41
:1036A000020263EBE07301984FEAE074381A66EBAC
:1036B0000401EBE783F000435CE781F0004159E748
:1036C0002DE9FE4F81EA030421F0004504F0004497
:1036D00023F000414FF0000A009450EA050302D0A5
:1036E00052EA010304D10020014603B0BDE8F08F87
:1036F000C1F30A53C5F30A541C44A0FB02B3C5F33B
:10370000130545F4801CC1F3130141F480180CFB30
:10371000023300FB083EA4F2F334810A930A41EA23
:103720008C5143EA88530194A1FB03474FEA9C253F
:1037300005FB03734FEA982601FB06373D05260576
:1037400045EA1435BBEB06016EEB0503850E920EC0
:1037500045EA8C1542EA8812A5FB0206261E67EB95
:1037600000070C0D44EA0334A41947EB1350C1F3CE
:1037700013064FF0000319464FEA033343EA16538A
:1037800043EA0403019CE5FB0201A4F10C0402944A
:10379000009C4FEA0632CDE900A400F0AFF9A4E79F
:1037A0002DE9F04D81EA030404F0004B21F00047BD
:1037B00014464FF0000A23F0004150EA070220D0DF
:1037C00054EA01021DD0C1F30A550246C1F31300A9
:1037D000C7F30A56C7F3130340F4801143F4801370
:1037E000A6EB0508101BD64608F2FD3873EB010066
:1037F00002D308F1010801E092185B41B8F1000F13
:1038000003DA00200146BDE8F08D00204FF480155A
:10381000064607460EE0B2EB040C73EB010C04D332
:10382000121B064363EB01032F436D084FEA300080
:1038300092185B4150EA050CEDD152EA030012D018
:1038400082EA040083EA0105284303D100224FF0F5
:10385000004308E0101B8B4102D20122002302E04A
:103860006FF0010253101AEB060047EB085110EB02
:103870000A0041EB0B01BDE8F04D00F032B9C10F79
:1038800080EAE0700844CA079623002100F0FCB8E3
:103890000EB5C10F80EAE0700844CA07002140F26B
:1038A00033438DE80E000A460B4600F027F903B0BB
:1038B00000BD00F0004220F00040C10DC0F3160032
:1038C00040F400007F2901DA00207047962903DCCC
:1038D000C1F19601C84001E096398840002AF4D031
:1038E0004042704770B5C1F30A5201F00045002410
:1038F000C1F3130140F2FF3341F480119A4201DA1F
:10390000002070BD40F233439A42A2F2334203DCFE
:10391000524200F08EF800E090402C43F1D040423B
:1039200070BD00F0004230F000400DD0C10D01F537
:10393000607142EA01510022C0F31600520742EAC8
:10394000D00240071143704700200146704701F044
:10395000004230B421F0004150EA010306D00B0DC3
:10396000A3F56073C1F31301002B02DC30BC00200F
:103970007047440F44EAC104C100A01830BC00EBFA
:10398000C35000F078B830B50B4601460020202225
:10399000012409E021FA02F59D4205D303FA02F55C
:1039A000491B04FA02F52844151EA2F10102F1DCBC
:1039B00030BD2DE9F05F0546002092469B468846C3
:1039C0000646814640241BE028464146474622469B
:1039D00000F02FF852465B46801A994110D31046EA
:1039E0001946224600F016F82D1A67EB01084F46DB
:1039F00022460120002100F00DF817EB00094E418E
:103A0000201EA4F10104DFDC484631462A46434625
:103A1000BDE8F09F202A04DB203A00FA02F10020E2
:103A200070479140C2F1200320FA03F319439040FC
:103A30007047202A04DB203A21FA02F00021704767
:103A400021FA02F3D040C2F1200291400843194606
:103A50007047202A06DBCB17203A41FA02F043EAEE
:103A6000E071704741FA02F3D040C2F12002914068
:103A70000843194670470029A8BF7047401C4900F9
:103A800008BF20F00100704710B4B0FA80FC00FAC3
:103A90000CF050EA010404BF10BC704749B1CCF1EE
:103AA000200421FA04F411FA0CF118BF012121437A
:103AB0000843A3EB0C01CB1D0106000A002BBEBF7F
:103AC000002010BC704700EBC35010440029A4BF75
:103AD00010BC7047401C490008BF20F0010010BC1A
:103AE000704710B5002B08DA401C41F10001921814
:103AF0005B411A4301D120F0010010BD2DE9F04DCA
:103B000092469B4611B1B1FA81F202E0B0FA80F21E
:103B100020329046FFF77EFF06460F4640EA0A0035
:103B200041EA0B0152465B46084303D13046394611
:103B3000BDE8F08D194652EA010015D0C8F14002E7
:103B40005046FFF776FF04460D465046594642461A
:103B5000FFF760FF084301D0012000E0002004438C
:103B600045EAE07526432F430A984FEAD625A0EB95
:103B700008000A304FEA46534FF0000245EA475525
:103B80004FEAD72402D500200146D1E7010550199C
:103B90006141DDE9084500196941BDE8F04DA0E744
:103BA00070B521F0004303430CD0C1F30A54002642
:103BB000D4EB060566EB0603D417AD1AA34102DB6E
:103BC0000020014670BD001C41EB025170BDC1F3E5
:103BD0000A52C1F3130140F2FF3341F480119A42BB
:103BE00002DA00200146704740F233439A42A2F2C3
:103BF000334202DC5242FFF71CBFFFF70BBF00004D
:103C000030B5002904DB4FF00044404264EB010171
:103C1000002B04DB4FF00044524264EB0303994253
:103C200008BF904230BD0000064C074D06E0E0683A
:103C300040F0010394E8070098471034AC42F6D3F3
:103C4000FCF77AFAF0490008104A00082DE9F04D17
:103C500000231A461B1A8A4103DB00200146BDE8F7
:103C6000F08DC1F30A52C1F3130141F480154FF0F6
:103C7000000BD10702D100186D41521E00260446E8
:103C800040F2FF11304601EB620A37468046024699
:103C900000204FF48011FFF7CCFE801979413318D2
:103CA00047EB0102B4EB030C75EB020C04D3E41AEE
:103CB00065EB020506460F46241908F101006D4127
:103CC00080463428E3DDB11947EB0700091BA84102
:103CD00003D24FF0FF32134601E0002213461BEBE4
:103CE000060047EB0A51BDE8F04DFFF7FABE0000B1
:103CF0000FB4054B10B503A9044A029800F03CF933
:103D000010BC5DF814FB00006D0500088000002069
:103D1000490050EAC12018BF04204A0D18BF40F0E6
:103D2000010040F2FF72B2EB515F08BF40F00200A9
:103D3000012808BF052070472DE9F0414F1E00EB18
:103D4000C7010446D1E9000115461E4637F00602B8
:103D50000DD02A463346FFF7B3FC7F1E04EBC703A2
:103D6000D3E90023FFF706FC37F00602F1D1022F5A
:103D700025D0042F13D0062F18BFBDE8F0812A46A6
:103D80003346FFF79DFCD4E90A23FFF7F3FB2A46ED
:103D90003346FFF795FCD4E90823FFF7EBFB2A46EF
:103DA0003346FFF78DFCD4E90623FFF7E3FB2A46F1
:103DB0003346FFF785FCD4E90423FFF7DBFB2A46F3
:103DC0003346FFF77DFCD4E90223FFF7D3FB2A46F5
:103DD0003346FFF775FCD4E90023BDE8F041FFF757
:103DE000C9BB0000024A00201107FFF7D9BE00003E
:103DF00001FDFFFF02E008C8121F08C1002AFAD126
:103E000070477047002001E001C1121F002AFBD15A
:103E100070470000014908607047000084000020DE
:103E20002DE9FF5FDDE90210020DDDF838B0014336
:103E30000FD10F9801244BA3012807D000980F9AA7
:103E4000C0E90031C0E90242BDE8FF9F6FEA0B0103
:103E5000F4E7A2F2FF3244F61050424315140F98D3
:103E600001280ED0A5EB0B00401C4FF000043E4E85
:103E7000DFF8F890B0F1000AA04605DACAF10007B1
:103E800017E0CBF10000F0E7074612E0F80707D093
:103E90002246334640464946FFF712FC8046894693
:103EA0002246334610461946FFF70AFC04460E46E2
:103EB0007F10002FEAD1DDE90201BAF1000F42467E
:103EC0004B4602DAFFF7FCFB01E0FFF769FC044612
:103ED0000E460022264BFFF793FE03D84FF0FF302B
:103EE000014607E00022234B20463146FFF742FB04
:103EF000FFF76DFE102409E0002C0ADB0A220023E4
:103F0000FFF757FD019B30321A55641E50EA01023B
:103F1000F2D1641C019AC4F1110314440F9A012ACE
:103F200009D00122084301D15B450FDD4FF00002AB
:103F300005F101050DE0084303D1A3EB0B056D1E50
:103F400009E000204FF0110B0F9088E701DA002202
:103F50006D1E002A83D000980F99C0E90231C0E994
:103F6000004571E730000000000024400000F03FF1
:103F70000000F0430000E03F2DE9FF4F95B00646FA
:103F80009A468946002521E2252801D01799A6E006
:103F90000024F9492746761C4FF001080394327833
:103FA000203A08FA02F0084202D00443761CF6E7F1
:103FB00030782A2811D06FF02F023078A0F130012C
:103FC000092916D8039944F0020401EB810102EBA0
:103FD00041010844761C0390EFE759F8041B039154
:103FE000002903DA484244F40054039044F00204E8
:103FF000761C30782E2816D116F8010F44F00404F0
:104000002A280DD06FF02F013078A0F13002092A54
:1040100009D807EB870201EB42028718761CF3E709
:1040200059F8047B761C30786C280FD006DC4C28BD
:1040300017D068280DD06A2814D104E0742810D055
:104040007A280FD10DE044F400140AE044F48014FF
:1040500001E044F440147178814202D1761C04F5E9
:104060008014761C96F800C0BCF1660F10D01ADCE4
:10407000BCF1580F70D00CDCBCF1000F6DD0BCF15E
:10408000450FF3D0BCF1460FF0D0BCF1470F24D15F
:10409000A4E1BCF1630F40D0BCF1640F74D0BCF15B
:1040A000650F1AD19AE1BCF1700F6ED00CDCBCF137
:1040B000670FEDD0BCF1690F75D0BCF16E0F12D057
:1040C000BCF16F0F09D1B3E0BCF1730F2FD0BCF17D
:1040D000750F76D0BCF1780F74D0179960465246B0
:1040E00090476D1C70E1C4F30250022809D00328E8
:1040F0000DD0D9F8001004280DD00D6009F1040985
:1041000062E1D9F80010EA17C1E90052F6E7D9F8E0
:1041100000100D80F2E70D70F0E759F8041B8DF8E0
:10412000001000208DF80100EB46012003E059F853
:1041300004BB4FF0FF3061074FF0000102D40FE0E5
:1041400008F101018846B94211DA8045F8DB1BF815
:1041500008100029F4D10AE060E03BE108F1010118
:1041600088468142FADB1BF808100029F6D1039833
:104170005346A0EB080721463846179A00F091FAFB
:10418000284400EB080506E00DE049E01BF8010BB0
:10419000524617999047B8F10108F7D25346214685
:1041A0003846179A0DE10A21C4F302524FF0000B72
:1041B0000091022A07D059F8040BC117032A0AD02C
:1041C0000BE024E025E009F1070020F00702F2E807
:1041D0000201914605E000B2C117042A01D140B2A4
:1041E000C117002906DA0A460021404261EB0201AC
:1041F0002D2202E0220504D52B228DF80420012275
:1042000003E0E20701D02022F7E7904654E00A21BC
:1042100000E010214FF0000B00910DE0102008E0AD
:1042200010204FF0000B44F004040827009003E036
:1042300008204FF0000B0090C4F30252022A05D070
:1042400059F8040B0021032A08D009E009F10700FE
:1042500020F00702F2E80201914605E080B2002159
:10426000042A01D1C0B200214FF00008220723D553
:10427000BCF1700F28D0009B83F0100353EA0B03AE
:1042800009D150EA010206D030228DF804208DF8C1
:1042900005C002229046009B83F0080353EA0B03FB
:1042A0000AD150EA010201D1620705D530228DF80A
:1042B00004204FF001087F1EBCF1580F09D02FA237
:1042C0000C920CAA029211E040228DF804200122E7
:1042D000E0E72FA2F4E75B46009AFFF76AFB0C9B2E
:1042E0009B5C029AA2F101020292137050EA010251
:1042F000F1D1029804A9A1EB000000F1200B6007A6
:1043000002D524F4803400E001275F4502DDA7EBED
:104310000B0000E0002000EB0B01009003984144EB
:10432000A0EB01000390E00306D453462146179A00
:10433000039800F0B6F90544002706E001A85246AC
:10434000C05D179990476D1C7F1C4745F6DBE00365
:104350000CD553462146179A039800F0A2F905445C
:1043600004E030205246179990476D1C0099481E72
:1043700000900029F5DC1EE00928010030313233BD
:104380003435363738396162636465660000000091
:10439000303132333435363738394142434445467B
:1043A000000000000298029952460078491C0291D0
:1043B000179990476D1CBBF10001ABF1010BF1DCCB
:1043C00050E100F05BF9054406F101063078002861
:1043D0007FF4DAAD19B02846BDE8F08F600700D44D
:1043E000062709F1070020F00701F1E802208946BD
:1043F00000F00043190001D09DA109E0210501D57D
:104400009CA105E0E10701D09BA101E0AFF284018E
:1044100020F000431391BCF1650F11D009DCBCF111
:10442000450F0DD0BCF1460F20D0BCF1470F3ED157
:104430003EE0BCF1660F19D0BCF1670F7CD137E0CC
:104440000021112F01DB112000E0781CCDE90001D3
:1044500004A90CA8FFF7E4FCDDE90D010C9A4FF06C
:10446000000B07F10108109200914CE04FF0004062
:104470000097CDE9018004A90CA8FFF7D1FCDDE984
:104480000E20DDE90C314FF0000B904610930092A6
:1044900018B907F1010001EB0008B7EB080003D4DD
:1044A000C0F1FF3B07F10108A8EB0700019043E0D2
:1044B000012F00DA01270021112F01DD112000E07A
:1044C0003846CDE9000104A90CA8FFF7A9FCDDE9F5
:1044D0000D010C9A00914FF0000BB8461092210785
:1044E0000CD40099414500DA8846B8F1010F05DD8A
:1044F000109AA8F10101515C302908D0B84202DAC3
:1045000010F1040F06DA0121CDE9011014E0A8F141
:104510000101E9E7002803DC8344A8EB000102E085
:10452000411C414500DD8846A0EB0B0000F1010075
:1045300001904FF000400290200705D401984045BB
:1045400002DB4FF0FF30019000208DF84B00029805
:104550000DF14B07B0F1004F26D002200C902B201C
:104560000D90029800280CDA404202902D200D9008
:1045700007E00A210298FFF706FA3031029007F8A7
:10458000011D0C99481E0C900029F2DC02980028AD
:10459000EFD1A7F101010D980870307800F02000EC
:1045A00040F0450007F8020D11A8A0EB070000F14C
:1045B000070002901398007800B1012000EB080179
:1045C000019801EBE071029801440398A0EB01000F
:1045D000A0F101000390E00306D453462146179A48
:1045E000039800F05EF805441398007820B1524615
:1045F0001799904705F10105E00322D5534621465E
:10460000179A039800F04DF805441AE0BBF1000F2B
:1046100007DB0098584504DD1098179910F80B0037
:1046200001E0179930205246904701986D1C401EBA
:104630000BF1010B019004D12E205246179990479F
:104640006D1CB8F10001A8F10108DFDC05E017F8E6
:10465000010B5246179990476D1C0299481E029013
:104660000029F4DC53462146179A0398A9E6000076
:104670002D0000002B000000200000002DE9F0417B
:104680000446002517461E46880405D406E0394630
:104690002020B04705F10105641EF8D52846BDE885
:1046A000F0812DE9F0410446002590461E46C803DE
:1046B00001D5302700E02027880405D506E04146D3
:1046C0003846B04705F10105641EF8D52846BDE817
:1046D000F08100002DE9F04D904F21F0004A86B0A6
:1046E00005460C46BA4530DBAAEB070028430CD040
:1046F0008B48824501DC1CD1DDB106B02846BDE8FF
:10470000F04D4FF00102FFF74BBA864A864B284620
:10471000FEF7D6FF07460E46844A854B28462146BB
:10472000FEF7CEFF06B03A463346BDE8F04DFEF741
:1047300021BF0120FFF76EFB06B00022BDE8F04D5F
:10474000134610461146FFF72BB87A48824542DAE5
:10475000BAF1795F0BDA2846FFF7DAFA042808BFC6
:10476000FFF740FB284606B02146BDE8F08D2A46FB
:104770000B461046FEF7A4FF834602466E480E46DF
:104780000B4606217844FFF7D7FA5A463346FEF720
:1047900097FF804669488A465A4633460421784442
:1047A000FFF7CAFA5A463346FEF78AFF00223B4615
:1047B000FEF7E0FE02460B4640465146FEF7F0FF8C
:1047C0002A462346FEF77CFF06B02A462346BDE86C
:1047D000F04DFEF7CFBE284624F0004100223D46B2
:1047E0003B46FEF76AFF4FF0FF32FFF7D9F9064666
:1047F000024653480F460B4606217844FFF79CFAC1
:1048000032463B46FEF75CFFCDE900014D4832469B
:104810003B4604217844FFF78FFA32463B46FEF7C9
:104820004FFF00222B46FEF7A5FE8346029130463D
:10483000394600F08DF8804643480D46504517DC58
:10484000DDE900015A46029BFEF7AAFF42462B46CD
:10485000FEF736FF42462B46FEF78CFE0122FFF79D
:104860009FF9304A304BFEF725FF304A304B4CE081
:104870004FF0000A52460B464046FEF77BFECDE95C
:10488000031052462B4610461946FEF719FF3246D2
:104890003B46FEF712FFDDE90332FEF781FF0646D5
:1048A0000F46DDE900015A46029BFEF779FF834679
:1048B0000091012230463946FFF772F9194A1A4B26
:1048C000FEF7FBFE06460F46012240462946FFF74B
:1048D00067F95A46009BFEF7F3FE32463B46FEF769
:1048E000E9FE07460E46012250462946FFF758F9D1
:1048F0000E4DDFF858802A464346FEF7DEFE3A4664
:104900003346FEF7DAFE2A464346FEF7D6FE002C73
:10491000D8BF81F0004106B0BDE8F08D0000F03F47
:104920000000F07F075C143326A6913C182D4454F8
:10493000FB21F93F0000E03F180200002E020000BA
:10494000A2010000B80100003333EF3FFB21E93F33
:104950002DE9F04106460F46FFF778F90D460400B1
:1049600018BF0120284320F00040C0F17F6010F103
:10497000E0400FD5002E14BF01200020384320F066
:104980000040C0F17F6000F1E0400028A4BF01209A
:10499000FFF740FA20462946BDE8F08100000000FC
:1049A000555555555555C53F7D6FEB0312D6D4BFB0
:1049B0005544880E55C1C93F3B8F68B52882A4BFB6
:1049C00088B20175E0EF493F09F7FD0DE13D023F77
:1049D0004B2D8A1C273A03C0C88A599CE52A0040FF
:1049E00059018D1B6C06E6BF82922EB1C5B8B33F4C
:1049F000104A00080000002088000000F43D000874
:104A0000984A00088800002028040000043E00089E
:104A10000000000000000000000000000000000096
:104A20000000000000000000000000000000000086
:104A30000000000000000000000000000000000076
:104A40000000000000000000010100000000000064
:104A50000000000000000000000000000000000056
:104A60000000000001000000000000000000000045
:104A70000000000000000000000000000000010233
:104A800003040102030406070809020406080000E3
:084A900000000000000000001E
:0400000508000131BD
:00000001FF
