:020000040800F2
:10000000A8040020F9320008013300080333000877
:10001000053300080733000809330008000000001A
:100020000000000000000000000000000B3300088A
:100030000D330008000000000F33000811330008E2
:100040001333000813330008133300081333000878
:100050001333000813330008133300081333000868
:100060001333000813330008133300081333000858
:100070001333000813330008133300081333000848
:100080001333000813330008133300081333000838
:100090001333000813330008133300081333000828
:1000A0001333000813330008133300081333000818
:1000B000410E00088F0D00081333000813330008A9
:1000C00013330008133300081333000813330008F8
:1000D00013330008190D0008133300081333000808
:1000E000D90C000813330008133300081333000839
:1000F00013330008133300081333000813330008C8
:1001000013330008133300081333000813330008B7
:1001100013330008133300081333000813330008A7
:100120001333000813330008133300081333000897
:10013000DFF80CD003F016FD004800474701000827
:10014000A8040020704700F071FC00F01DFD00F0D5
:100150009FFC00F05BFD00F08BFD0B4B00220B4978
:100160000B4800F0E3FB00230A4A0B490B4800F060
:10017000DDFB00F0F7F900F099F900F03EFA00F02D
:100180008FFA00BFFEE700000000F0C20000344319
:100190008000002000008C420000204194000020DC
:1001A0003C2001E0411EC8B20028FBD1704700B5D9
:1001B000BD48006820F00F00BB4908600846006891
:1001C00040F0030008600846006820F0F000086076
:1001D0000846006840F0300008600120B249103144
:1001E000086002200860FFF7DBFFAF4808300068B6
:1001F00000F0010090F0010001D0002000BD0120BE
:10020000A94914310860FFF7CBFFA7480830006800
:1002100010F0010F01D00020F0E7FFF7C1FF01202F
:10022000ECE700B5024608239F48006820F00F0065
:100230009D4908600846006840F0030008601BE024
:100240000220994914310860FFF7AAFF12F0800FCD
:1002500004D0012094491031086003E00120924944
:10026000143108605006020EFFF79AFF02208E49F3
:1002700010310860FFF794FF1800A3F10101CBB221
:10028000DED1022088491431086000BD00B5082382
:1002900000228548006820F00F0083490860084666
:1002A000006840F00800086015E05006020E0220C9
:1002B0007D4914310860FFF773FF02207A4910313D
:1002C0000860FFF76DFF78480830006810F0010FF4
:1002D00001D042F001021800A3F10101CBB2E4D138
:1002E0000220714914310860104600BD00B5024675
:1002F0006D48006820F00F006B49086008460068F0
:1003000040F0030008600220674914310860FFF7DD
:1003100047FF22B1012064491031086003E0012049
:10032000614914310860FFF73BFF01205E4910313D
:100330000860FFF735FF02205B4914310860FFF7C2
:100340002FFF00BD00B55848006820F00F00564947
:1003500008600846006840F0080008600220524922
:1003600014310860FFF71CFF01204F49103108606D
:10037000FFF716FF02204C4910310860FFF710FF0D
:1003800049480830006810F0010F07D002204649A4
:1003900014310860FFF704FF002000BD022042492D
:1003A00014310860FFF7FCFE0120F6E700B53E4877
:1003B000006820F00F003C4908600846006840F0E3
:1003C000030008600220384914310860FFF7E8FE96
:1003D0000120354914310860FFF7E2FE022032495E
:1003E00010310860FFF7DCFE01202F491031086052
:1003F000FFF7D6FE00BD002106E04FF47A7200E060
:10040000521E002AFCD1491C8142F6D3704770B5B8
:1004100006460C461546FFF7CAFE08B9002070BD17
:100420003046FFF7FEFEFFF78DFF18B9FFF7BEFF5E
:100430000020F4E72046FFF7F4FEFFF783FF28468D
:10044000FFF7EFFEFFF77EFFFFF7B0FF0520FFF796
:10045000D2FF0120E3E770B504460D46FFF7A7FE83
:1004600008B9002070BD2046FFF7DBFEFFF76AFFEA
:1004700018B9FFF79BFF0020F4E72846FFF7D1FEED
:10048000FFF760FFFFF793FE601CC0B2FFF7C9FEE5
:10049000FFF758FFFFF7FAFE06460120FFF726FF99
:1004A000FFF784FF3046DDE7000C014010B5002265
:1004B0006B21D020FFF7ABFF07221921D020FFF7D7
:1004C000A6FF00221A21D020FFF7A1FF18221B212E
:1004D000D020FFF79CFF28221C21D020FFF797FF98
:1004E00010BD70471CB504463C21D020FFF7B3FF78
:1004F0008DF800003B21D020FFF7ADFF8DF8010003
:100500009DF800009DF8011040EA012000B2208013
:100510003E21D020FFF79FFF8DF802003D21D02023
:10052000FFF799FF8DF803009DF802009DF8031076
:1005300040EA012000B260804621D020FFF78BFF07
:100540008DF804004521D020FFF785FF8DF80500C8
:100550009DF804009DF8051040EA012000B2A0803B
:100560001CBD000000B587B00121042001F08BFD07
:100570004FF47A70ADF814000020ADF81000ADF81B
:100580001600ADF8120004A98A4801F0ABFE7020F5
:10059000ADF800000120ADF802000020ADF8060023
:1005A0000220ADF808006946824801F0D8FE69468D
:1005B000804801F016FF69467E4801F05BFF6946FE
:1005C0007C4801F09EFF08217A4802F0F3FA0821E6
:1005D000784802F0F8FA0821764802F0FFFA08217C
:1005E000744802F004FB0121724802F0B3FA0121C1
:1005F000704802F0A7F907B000BD00B587B001212F
:10060000042001F033FD0121084601F03CFD0820E3
:10061000ADF80C0028208DF80F0003208DF80E0097
:1006200003A9654801F06EFA0821634801F015FB43
:100630004FF0804001F082FD42F20F70ADF81400DF
:100640004720ADF810000020ADF81600ADF81200FC
:1006500004A94FF0804001F045FE0C20ADF80000E9
:100660000020ADF802000120ADF804000020ADF834
:1006700006000320ADF8080069464FF0804002F004
:10068000A3F80121880702F019FC01221121880733
:1006900002F07DF90121880702F054F907B000BD8E
:1006A00000B587B00121022001F0EDFC434801F0C4
:1006B00045FD6320ADF8140048F69F40ADF81000EA
:1006C0000020ADF81600ADF812008DF8180004A94E
:1006D0003A4801F007FE0121384802F0EFFB012201
:1006E0001146364802F053F901220221334802F044
:1006F0004EF90020ADF804000220ADF806000120FC
:10070000ADF808000020ADF80A00ADF80C0001A912
:100710002A4802F059F80121284802F013F907B0DD
:1007200000BD70B504460D46002C03DB01202449B2
:10073000087002E0022022490870B4F57A7F01DBDC
:100740004FF47A7414F57A7F00DA1E4CB5F57A7F8F
:1007500001DB4FF47A7515F57A7F00DA194D002C1C
:1007600007DBA1B2134802F07BFB0021114802F025
:1007700079FB002C08DA00210E4802F071FB604280
:1007800081B20C4802F06EFB002D07DBA9B20948CC
:1007900002F06AFB0021074802F068FB002D08DA2E
:1007A0000021044802F060FB684281B2014802F077
:1007B0005DFB70BD000800400008014000040040DF
:1007C0000000002018FCFFFF2DE9F74F84B0884699
:1007D00091464946049802F0A1FD019003F043F8C8
:1007E00004464E4A4E4B02F00DFF06460F46404669
:1007F00003F039F804464B4A4B4B02F003FF3246F4
:100800003B46CDE9020102F057FE824603F041F873
:100810000490049807B0BDE8F08F2DE9F04F8DB03B
:1008200006460F4690469946DDF858B0C2465846EF
:1008300003F019F8044600224FF0804303F06AFBEE
:10084000CDE90401484603F00EF8044600224FF0BB
:10085000804303F05FFBCDE90201DDE9042302F0F0
:100860002BFECDE9060104F04BF8CDE9080103F0B9
:1008700010F80B900B9802F0F6FF044600224FF0A0
:10088000804303F047FBCDE90201384602F0EBFF5D
:10089000044600224FF0804303F03CFBCDE9000109
:1008A000DDE9022302F008FECDE906010B9802F013
:1008B000DAFF044600224FF0804303F02BFBCDE922
:1008C0000401DDE9062302F00DFFCDE9080102F085
:1008D000E0FF0A905146304602F0F8FF0DD851462D
:1008E000304602F070FD05460A9902F06FFD04469D
:1008F000314602F013FD82460CE05146304602F0CC
:100900005FFD05460A9902F061FD0446514602F07A
:1009100005FD824650460DB0BDE8F08FAE47E17A46
:1009200014AEEF3F7B14AE47E17A843F10B500244C
:10093000046044608160C260036110BD2DE9F84F1E
:1009400004460E4615463146206802F039FD0090F7
:100950006068009902F0E2FC60602946206902F0BC
:1009600035FD81466168E06802F030FD8246A0688E
:10097000009902F02BFD8346514602F0CFFC8046E1
:10098000494602F01DFD074602F035FFBDE8F88F2D
:100990002DE9F84F814688469346BBF1000F00DDF4
:1009A00000E000BF404602F00CFF009002F05BFF49
:1009B00006464FF033321B4B02F024FE044602F091
:1009C00068FF8246504602F016FF1749096808443E
:1009D0001549086008460068142801DD14200860E5
:1009E0001148006810F1140F03DA6FF013000E497C
:1009F00008600D48006802F0E4FE0746D9F80C10C4
:100A000002F0E4FC05465146D9F8080002F0DEFC8D
:100A10000646294602F082FC044602F0ECFEBDE8E0
:100A2000F88F00003333D33F0400002010B501F0ED
:100A3000B5F94FF4803001F0D1F901F00EFA044617
:100A4000012C24D1102000F035FD022000F01EFD05
:100A5000002001F044FA002001F053FAA00201F056
:100A600047FA4FF4E011200401F01CFA012001F0D4
:100A700025FA00BF392001F0D4F90028FAD002206D
:100A800001F01FFA00BF01F025FA0828FBD110BDC4
:100A900008B501211D2001F0E9FA0220ADF800009F
:100AA00003208DF8020014208DF803006946F948F0
:100AB00001F028F80120ADF8000003208DF80200B5
:100AC00014208DF803006946F24801F01BF840201D
:100AD000ADF8000018208DF8030003208DF8020007
:100AE0006946EC4801F00EF88020ADF800001820AF
:100AF0008DF8030003208DF802006946E54801F0F7
:100B000001F84FF48070ADF8000018208DF8030054
:100B100003208DF802006946DE4800F0F3FF4FF431
:100B20000070ADF8000018208DF8030003208DF848
:100B300002006946D74800F0E5FF4FF48060ADF849
:100B4000000048208DF803006946D24800F0DAFF23
:100B50004FF40060ADF8000048208DF8030003203A
:100B60008DF802006946CB4800F0CCFF2020ADF89C
:100B7000000001208DF8020010208DF80300694666
:100B8000C44800F0BFFF08BD00B585B0012144F2A4
:100B9000050001F06BFA4FF40070ADF8100003206F
:100BA0008DF8120018208DF8130004A9BA4800F03F
:100BB000A9FF4FF48060ADF8100003208DF81200FB
:100BC00004208DF8130004A9B34800F09BFF4FF4F4
:100BD000E13000900020ADF80400ADF80600ADF85B
:100BE0000800ADF80C000C20ADF80A00012240F21C
:100BF0002551AA4802F055FA6946A84802F0B9F909
:100C00000121A64802F041FA05B000BD08B54FF435
:100C1000E06000F03FFB1D208DF8000000208DF803
:100C200001008DF8020001208DF80300684600F0F5
:100C300036FB1C208DF8000000208DF801000220FA
:100C40008DF8020001208DF80300684600F027FBB4
:100C500028208DF8000000208DF8010003208DF879
:100C6000020001208DF80300684600F018FB08BD63
:100C70001CB50121084601F0F9F94FF4806000F03D
:100C8000FCFB00208DF804000C208DF805004FF4CB
:100C90008060009001208DF80600684600F076FB29
:100CA0000A21012001F042F84FF4006000F0E5FB5A
:100CB00000208DF804000C208DF805004FF4006032
:100CC000009001208DF80600684600F05FFB0B21C4
:100CD000012001F02BF81CBD10B54FF4806000F02E
:100CE000BBFB48B16E480088401C00B26C490880CC
:100CF0004FF4806000F0C1FB4FF4006000F0ACFBEB
:100D000048B168480088401C00B2664908804FF42A
:100D1000006000F0B2FB10BD10B540F225515F48F5
:100D200002F0A7FA18B15D4802F023FAC4B210BD70
:100D300010B500205C4B1B7813F0400F26D05B4BA6
:100D40001B68190E594B1B68C3F30742D343DBB230
:100D500099420CD159B9554B1B68C3F30721534B2A
:100D60001B68DAB2D343DBB2994200D1084620B106
:100D70004D4B1B7813F0800F08D14B4B1B7823F0A1
:100D80004003494C23700023494C237010BD10B51B
:100D90000121484802F095F8012850D10121454829
:100DA00002F0A0F83E48B0F9000014280ADC3C48E4
:100DB000B0F90000032805DD3948B0F900003E49CC
:100DC00008800BE03648B0F90000142803DD142039
:100DD0003949088002E00320374908800020304963
:100DE00008803048B0F9000014280ADC2D48B0F91A
:100DF0000000032805DD2B48B0F900002F490880CA
:100E00000BE02848B0F90000142803DD14202B491A
:100E1000088002E003202949088000202149088039
:100E200027480078401C26490870084600780A28A0
:100E300005DB00200870FFF77BFF2249087010BD1A
:100E40002DE9F0470121880702F03BF801287DD108
:100E50001548007810F0800F41D01348007820F03A
:100E60001000114908700846007810F00F0F04D1E7
:100E70000846007840F0400008700B48007800F009
:100E80000F000E2820DA08480078401C0649087038
:100E900025E00000000C014000080140003801403E
:100EA0002C0000202E0000205100002054000020C3
:100EB00058000020000400403000002032000020D4
:100EC0003700002044000020CD48007820F080004A
:100ED000CB4908700846007800F0F0000870C94857
:100EE000C949086008460068FFF7FCFAC648006870
:100EF0000088C6490880C44800684088C449088002
:100F0000C14800688088C3490880C048B0F9000023
:100F100002F060FC0646C04AC04B02F0CDFA04461F
:100F200002F082FC00B2B9490880B948B0F900006B
:100F300002F050FC06464FF03332B94B02F0BCFAD7
:100F4000044602F071FC00B2B14900E0C6E008803E
:100F5000B048B0F9000002F03DFC0646B14AB24B81
:100F600002F0AAFA044602F05FFC00B2A949088028
:100F7000A648B0F9000002F024FC04464FF08C4172
:100F800002F05AFAA94908600846006802F06BFCB2
:100F9000044602F081FE064602F07BFCA34908608D
:100FA0000846006802F05FFC04460022A04B02F0F5
:100FB00029FB80469F4AA04B02F094FB064602F0B4
:100FC00068FC9A4908609348B0F9000002F0F9FB08
:100FD000824602F048FC06464FF06632974B02F01C
:100FE00081FB0446964A974B02F00CFB804602F0C8
:100FF00050FC95490860084601689448006802F072
:101000008DF9924908608948006880F000448E4854
:10101000214602688E480068FFF7D6FB8C490860BD
:101020008C480078022815D18B48B0F900000028C0
:1010300010DD8A48B0F9000000280BDD86480088E2
:10104000404200B28449088084480088404200B28F
:101050008249088082480078182803D101208149FC
:1010600008700AE07E4800784A2803D1FF207D49B5
:10107000087002E000207B4908707548006880F025
:1010800000447148214602687748FFF757FC7749CA
:1010900008607248B0F900006F4AB2F90020811868
:1010A000704890F900207248FFF772FC714908609F
:1010B0006E480068096808446F4908600A4612686B
:1010C0006E4B1B68D1186C4A12686D4B1B68D018A8
:1010D000FFF727FB0121880701F004FF1021880694
:1010E00001F0EFFE00287DD06648006878B102214B
:1010F000480701F013FE00214FF0804001F0ACFEE4
:101100003F48007840F010003D49087071E04FF012
:10111000804001F0C0FE5C49088000214FF0804013
:1011200001F0FCFD3648007810F0100F59D034481B
:10113000007810F0800F3FD053480088B0F5967FBC
:101140000DDD51480088B0F5487F08DA4F48006847
:1011500040004E49086008460068086041E04A487F
:101160000088B0F5AF6F0FDD47480088B0F5E16F3C
:101170000ADA4648006840004449086008460068AA
:1011800040F0010008602CE03F48008840F69801DC
:10119000884226DD3C48008840F62821884220DA33
:1011A0003B480078401C3A4908701548007800F028
:1011B000F0001349087014E03348008841F26801D8
:1011C00088420EDD3048008841F25C21884208DA0E
:1011D0000B48007840F080000949087000202C4935
:1011E000087000E009E00648007820F0100004498B
:1011F00008701121880701F061FEBDE8F08700004A
:10120000510000200C000020600000205A00002047
:101210005C000020180000209A99999999D954C02F
:10122000335378C0AE47E17A142E4CC0280000201A
:10123000008066404AD8124DFB2109406666304066
:101240007B14AE47E17A843F200000201C00002080
:1012500008000020000000203000002032000020A4
:1012600044000020590000208000002038000020A9
:10127000940000203C000020400000204C00002092
:10128000480000200C01214264000020540000208E
:101290005800002031490143314A1160704770B550
:1012A000002100230F22C4780CB32D4C246804F4D1
:1012B000E064C4F5E064210AC1F10403CA40447843
:1012C00004FA03F18478144021430901254C06787F
:1012D000A155047804F01F050124AC4005786D1178
:1012E0004FF0E02606EB8505C5F8004109E00478DB
:1012F00004F01F050124AC401B4D0678761145F81B
:10130000264070BD194A0A400243154B1B1F1A6044
:10131000704739B1124A121D12680243104B1B1D4F
:101320001A6006E00E4A121D126882430C4B1B1D08
:101330001A607047042808D14FF0E021096941F094
:1013400004014FF0E022116107E04FF0E02109694C
:1013500021F004014FF0E022116170470000FA050E
:101360000CED00E000E400E080E100E080FFFF1F02
:10137000002044490860091D0860091D0860091D16
:10138000086041483F4914310860704700213D49D9
:101390008279002A3AD00A46126803689A430B46BB
:1013A0001A600A1D126803689A430B1D1A600279BD
:1013B00011440A6803681A430A60324A0832126804
:1013C00003689A432F4B08331A601A1D126803688A
:1013D0009A432C4B0C331A604279102A0ED11A1FF3
:1013E000126803681A43274B08331A601A1D1268E3
:1013F00003681A43234B0C331A600DE021494279EC
:1014000011440A6803681A430A6005E0027911442E
:101410000A6803689A430A607047002101600171FD
:101420000C21417100218171704716491031096802
:101430000143144A10321160704701460020114ADE
:10144000143212680A4201D0012000E000207047E7
:101450000C49143108607047014600200022094BF6
:101460001B6803EA0102074B14331B680B4202D0CE
:101470000AB1012000E000207047024914310860E1
:101480007047000000040140FFFF0F0001460020EC
:10149000FE4A106800F03800084310607047FB49AE
:1014A000096821F00801F94A1160114609680143F1
:1014B00011607047F549096821F01001F34A116085
:1014C00011460968014311607047F148EF494860CF
:1014D000F04848607047EE48EC494860ED48486085
:1014E0007047EA48006940F08000E84908617047A9
:1014F000E648006940F08000E44908617047042034
:10150000E249C96801F00101012901D101200EE081
:10151000DE49C96811F0040F01D0022007E0DB4961
:10152000C96811F0100F01D0032000E004207047BB
:1015300000B502460423FFF7E2FF034603E0FFF78E
:10154000DEFF0346521E012B01D1002AF7D102B95A
:101550000523184600BD30B5044604254FF430205D
:10156000FFF7E6FF0546042D17D1C848006940F093
:101570000200C649086108464461006940F0400025
:1015800008614FF43020FFF7D3FF0546BF480069DC
:1015900041F6FD710840BD490861284630BD10B5CF
:1015A00004244FF43020FFF7C3FF0446042C16D167
:1015B000B648006940F00400B44908610846006973
:1015C00040F0400008614FF43020FFF7B1FF0446BF
:1015D000AE48006941F6FB710840AC4908612046FD
:1015E00010BD00B502460423FFF789FF034603E060
:1015F000FFF785FF0346521E012B01D1002AF7D1C8
:1016000002B90523184600BD10B504244FF430205C
:10161000FFF7E7FF0446042C16D19C48006940F010
:1016200004009A4908610846006940F040000861DA
:101630004FF43020FFF7D5FF04469448006941F687
:10164000FB71084091490861204610BD00208F4978
:10165000C96911F0020F01D0012000E0002070479D
:1016600030B5A5250424FFF7F1FF00B100254FF4A4
:101670003020FFF75DFF0446042C3AD184488349AB
:101680008860844888600846006940F0200008614E
:101690000846006940F0400008614FF43020FFF731
:1016A00047FF0446042C1BD17848006941F6DF71DE
:1016B0000840764908610846006940F0100008615A
:1016C00075480580E002FFF733FF0446052C10D073
:1016D0006E48006941F6EF7108406C49086108E006
:1016E000052C06D06948006941F6EF71084067494A
:1016F0000861204630BDF0B504460D46042600279B
:10170000F002FFF715FF0646042E22D15F4800695C
:1017100040F001005D4908612580F002FFF708FFF5
:101720000646042E0ED1A71C280C3880F002FFF7C5
:10173000FFFE06465548006941F6FE7108405349D0
:10174000086106E05148006941F6FE7108404F49C2
:1017500008613046F0BD70B504460D460426F0021F
:10176000FFF7E6FE0646042E11D14848006940F016
:101770000100464908612580F002FFF7D9FE0646C0
:101780004248006941F6FE71084040490861304610
:1017900070BD70B505460E460424E002FFF7C8FE92
:1017A0000446042C17D13A48384988603948886083
:1017B0000846006940F0100008612E80E002FFF743
:1017C000B7FE0446052C06D03048006941F6EF719B
:1017D00008402E490861204670BD2DE9F0430446BB
:1017E0004FF6FF763746B046B1460425E443E6B2ED
:1017F000C4F30727C4F307484FEA1469E802FFF768
:1018000097FE0546042D40D1214820498860214893
:1018100088600846006940F010000861FF2E06D07D
:101820001D4808300680E802FFF782FE0546042DB9
:1018300008D1FF2F06D018480A300780E802FFF7CA
:1018400077FE0546042D0AD1B8F1FF0F07D01248E4
:101850000C30A0F80080E802FFF76AFE0546042D70
:101860000AD1B9F1FF0F07D00B480E30A0F8009055
:10187000E802FFF75DFE0546052D06D00348006926
:1018800041F6EF7108400149086107E0002002407D
:1018900023016745AB89EFCD00F8FF1F2846BDE85F
:1018A000F08330B5054604244FF43020FFF740FEA6
:1018B0000446042C41D15F485F4988605F488860D6
:1018C0000846006940F0200008610846006940F0C1
:1018D000400008614FF43020FFF72AFE0446042C34
:1018E00022D15548006941F6DF710840524908612C
:1018F0000846006940F0100008611DB10020504901
:10190000088002E0A5204E4908804FF43020FFF700
:101910000FFE0446052C10D04748006941F6EF71D0
:1019200008404549086108E0052C06D04248006996
:1019300041F6DF71084040490861204630BDF0B5EE
:1019400005460E46174604243A483B4988603B4802
:101950008860E002FFF7ECFD0446042C19D13648FC
:10196000006940F010003449086147F0F800304346
:1019700028433349891C0880E002FFF7D9FD04465B
:10198000052C06D02C48006941F6EF7108402A4921
:1019900008612046F0BD2848C06980087047264885
:1019A000006A704700202449096811F0200F01D017
:1019B000012000E00020704729B11F4A126902434C
:1019C0001D4B1A6104E01C4A126982431A4B1A61CA
:1019D000704701460020012908D1174AD26912F048
:1019E000010F01D0012008E0002006E0124AD26871
:1019F0000A4201D0012000E0002070470E49C86073
:101A0000704704200C49C96801F00101012901D186
:101A100001200EE00849C96811F0040F01D002202E
:101A200007E00549C96811F0100F01D0032000E05C
:101A3000042070472301674500200240AB89EFCDA9
:101A400000F8FF1F10B50446CA48844208D101219E
:101A5000042000F025FB0021042000F021FB46E0DB
:101A6000C548844208D10121082000F019FB00215B
:101A7000082000F015FB3AE0C048844208D101215B
:101A8000102000F00DFB0021102000F009FB2EE0DB
:101A9000BB48844208D10121202000F001FB002135
:101AA000202000F0FDFA22E0B648844208D101214E
:101AB000402000F0F5FA0021402000F0F1FA16E095
:101AC000B148844208D10121802000F0E9FA0021C8
:101AD000802000F0E5FA0AE0AC48844207D10121F9
:101AE000801500F0DDFA0021A01500F0D9FA10BD34
:101AF00010B50121084600F0D3FA0021012000F0C2
:101B0000CFFA10BD2DE9F041024600250026002045
:101B100000230024002791F803C00CF00F0591F872
:101B200003C01CF0100F03D091F802C04CEA050569
:101B3000B1F800C01CF0FF0F31D0146800202BE07A
:101B40004FF0010C0CFA00F3B1F800C00CEA0306E8
:101B50009E4220D183004FF00F0C0CFA03F7BC43D8
:101B600005FA03FC4CEA040491F803C0BCF1280F09
:101B700006D14FF0010C0CFA00FCC2F814C00AE0C8
:101B800091F803C0BCF1480F05D14FF0010C0CFADD
:101B900000FCC2F810C0401C0828D1D31460B1F872
:101BA00000C0BCF1FF0F34DD546800202EE000F1CE
:101BB000080C4FF0010808FA0CF3B1F800C00CEA69
:101BC00003069E4221D183004FF00F0C0CFA03F75D
:101BD000BC4305FA03FC4CEA040491F803C0BCF1D1
:101BE000280F05D100F1080C08FA0CF8C2F814808F
:101BF00091F803C0BCF1480F07D100F1080C4FF079
:101C0000010808FA0CF8C2F81080401C0828CED34E
:101C10005460BDE8F0814FF6FF71018002218170B0
:101C20000421C17070470246002093680B4201D026
:101C3000012000E0002070470146886880B27047AC
:101C400002460020D3680B4201D0012000E00020B2
:101C500070470146C86880B27047016170474161B2
:101C600070470AB1016100E041617047C16070478F
:101C70004FF480320A4382618161826182698269A4
:101C8000704702460020424B18684FF68073184098
:101C900040EA021008433E4B186070473D49C86156
:101CA0007047F0B50A46002300240021002500F00B
:101CB0000046B6F1004F02D1354EF16901E0344ED5
:101CC0007168C0F3034583B200F44016B6F5401FB7
:101CD00008D121F070612E4E766826F070662C4F88
:101CE0007E6012E000F48016B6F5801F06D1032650
:101CF00006FA05F4A14341F0706106E0460D360195
:101D000003FA06F6B14341F0706122B1460D360187
:101D100003FA06F6314300F00046B6F1004F02D157
:101D20001B4EF16101E01A4E7160F0BD30B500222A
:101D30008B071C0F0F2303FA04F2154B08338C108A
:101D400053F824309343124C08348D1044F8253056
:101D500023468C1053F824308C07240F00FA04F427
:101D600023430B4C08348D1044F8253030BD0A490C
:101D70000860704700080140000C0140001001405D
:101D80000014014000180140001C014000200140E7
:101D90000000014000002042DC002042DC480068D6
:101DA00040F00100DA49086008464068D949084017
:101DB000D749486008460068D7490840D4490860B8
:101DC0000846006820F4802008600846406820F437
:101DD000FE0048604FF41F0088607047CC490968D6
:101DE00021F48031CA4A11601146096821F480212A
:101DF0001160B0F5803F03D0B0F5802F0ED106E022
:101E0000C349096841F48031C14A116007E0C04903
:101E1000096841F4A021BE4A116000E000BF00BF84
:101E2000704710B501460022002300204A11012A04
:101E300002D1B74C236806E0022A02D1B44C236ACF
:101E400001E0B34C636A01F01F02012494401C427C
:101E500001D0012000E0002010BD70B50024002555
:101E6000002600BF3120FFF7DCFF0646641CB4F5F6
:101E7000A06F01D0002EF5D03120FFF7D2FF08B1BE
:101E8000012500E00025284670BD01460020A04A3B
:101E9000106820F0F80040EAC100106070479F49C8
:101EA0000860704702460020994B586820F47C1067
:101EB00042EA01031843964B5860704797490866F9
:101EC000704701460020924A506820F00300084302
:101ED000506070478E48406800F00C007047014623
:101EE00000208B4A506820F0F00008435060704793
:101EF00001460020864A506820F4E06008435060A4
:101F0000704701460020824A506820F4605040EA41
:101F1000C1005060704729B17D4A527A02437C4B20
:101F20005A7206E07A4A527AC343DBB21A40784BBF
:101F30005A7270477A490860704701460020744A17
:101F4000506820F440400843506070470021754AB3
:101F500011706F4A82F82010012802D0042808D19D
:101F600003E001216F4A117004E005216D4A1170F0
:101F700000E000BF00BF70476B49086070476449CC
:101F8000096A0143624A116270476749443908602F
:101F9000704730B500210022002400235C4D6D689D
:101FA00005F00C0121B1042905D0082923D105E051
:101FB0005E4D056022E05D4D05601FE0544D6D688B
:101FC00005F47012524D6D6805F48034022505EB5E
:101FD00092421CB9564D554305600BE04C4D6D685F
:101FE00015F4003F03D0524D5543056002E04F4DBC
:101FF0005543056002E04D4D056000BF00BF444DF4
:102000006D6805F0F00109094A4D6B5C0568DD401B
:1020100045603F4D6D6805F4E061090A454D6B5C14
:102020004568DD4085603A4D6D6805F46051C90A28
:10203000404D6B5C4568DD40C560354D6D6805F40D
:102040004041890B3C4D6B5CC568B5FBF3F5056100
:1020500030BD29B12E4A526902432D4B5A6104E02A
:102060002B4A526982432A4B5A61704729B1284A48
:1020700092690243264B9A6104E0254A92698243A1
:10208000234B9A61704729B1214AD2690243204B00
:10209000DA6104E01E4AD26982431D4BDA6170475F
:1020A00029B11B4AD2680243194BDA6004E0184A8E
:1020B000D2688243164BDA60704729B1144A12691C
:1020C0000243134B1A6104E0114A12698243104B18
:1020D0001A61704714494039086070470F49C86455
:1020E00070470B49C87170470948406A40F08070DA
:1020F00007494862704701460020054A92680A4233
:1021000001D0012000E0002070470149887270472B
:10211000001002400000FFF8FFFFF6FE0000424200
:10212000D8004242201002408004424200127A004D
:1021300000093D00660000207600002010B504462E
:10214000FE48844208D10121C014FFF7A9FF0021F5
:10215000E014FFF7A5FFC4E0B4F1804F08D10121DE
:102160000846FFF7AAFF00210120FFF7A6FFB8E00D
:10217000F348844208D101210220FFF79EFF00218D
:102180000220FFF79AFFACE0EE48844208D101211B
:102190000420FFF792FF00210420FFF78EFFA0E04C
:1021A000E948844208D101210820FFF786FF002179
:1021B0000820FFF782FF94E0E448844208D101211F
:1021C0001020FFF77AFF00211020FFF776FF88E04C
:1021D000DF48844208D101212020FFF76EFF002153
:1021E0002020FFF76AFF7CE0DA48844208D1012111
:1021F0004014FFF755FF00216014FFF751FF70E016
:10220000D548844209D10121C804FFF749FF0021C4
:102210004FF40020FFF744FF63E0D048844209D127
:1022200001210805FFF73CFF00214FF48010FFF764
:1022300037FF56E0CA48844209D101214805FFF71B
:102240002FFF00214FF40010FFF72AFF49E0C54897
:10225000844208D101214020FFF72FFF00214020B8
:10226000FFF72BFF3DE0C048844208D101218020C8
:10227000FFF723FF00218020FFF71FFF31E0BB485D
:10228000844208D101218015FFF717FF0021A01516
:10229000FFF713FF25E0B648844209D10121080465
:1022A000FFF7FEFE00214FF48030FFF7F9FE18E043
:1022B000B048844209D101214804FFF7F1FE002112
:1022C0004FF40030FFF7ECFE0BE0AB48844208D13E
:1022D00001218804FFF7E4FE00214FF48020FFF77E
:1022E000DFFE10BD00220288944B98420ED0994B1D
:1022F00098420BD0B0F1804F08D0914B984205D056
:10230000904B984202D0904B984204D14FF68F7375
:102310001A404B881A438D4B984207D08C4B9842F9
:1023200004D04FF6FF431A40CB881A4302808B88B3
:1023300083850B880385814B98420BD0854B98424F
:1023400008D08B4B984205D08A4B984202D08A4BDA
:10235000984201D10B7A038601238382704770B5BE
:10236000002400220023058C4FF6FE7635400584BC
:10237000028C8388048B4FF68F752C40B51E2C4041
:102380000D882C43751E2A400D892A434D882A4307
:102390006A4DA8420BD06F4DA84208D0744DA84298
:1023A00005D0744DA84202D0734DA84213D14FF608
:1023B000F7752A404D892A434FF6FB752A408D88D0
:1023C0002A434FF6FF652B404FF6FF552B408D8972
:1023D0002B43CD892B4383800483CD88858602845B
:1023E00070BD70B5002400220023058C4FF6EF76F7
:1023F00035400584028C8388048B48F6FF752C4099
:102400004FF6FF452C400D882D0644EA15444FF643
:10241000DF752A400D892D0542EA15424D882D05AC
:1024200042EA1542454DA84202D04A4DA8421BD16E
:102430004FF67F752A404D892D0542EA15424FF629
:10244000BF752A408D882D0542EA15424FF6FF35AB
:102450002B404FF2FF752B408D89AD0443EA1543A5
:10246000CD89AD0443EA154383800483CD88058775
:10247000028470BD70B5002400220023058C4FF645
:10248000FF6635400584028C8388848B4FF68F75F8
:102490002C404FF6FC752C400D882C434FF6FF5511
:1024A0002A400D892D0642EA15424D882D0642EA42
:1024B0001542224DA84202D0264DA8421BD14FF210
:1024C000FF752A404D892D0642EA15424FF6FF3529
:1024D0002A408D882D0642EA15424EF6FF752B40A4
:1024E0004DF6FF752B408D892D0543EA1543CD89A7
:1024F0002D0543EA154383808483CD888587028434
:1025000070BD70B5002200230024058C4EF6FF76C6
:1025100035400584038C8488828B48F6FF752A40F9
:102520004FF6FF452A400D882D0642EA15424DF62A
:10253000FF752B400D892D0720E00000002C014085
:102540000004004000080040000C00400010004063
:102550000014004000340140004C01400050014094
:102560000054014000180040001C004000200040C2
:1025700000400140004401400048014043EA154347
:102580004D882D0743EA1543F84DA84202D0F84D77
:10259000A84206D14BF6FF752C408D89AD0544EA63
:1025A000154484808283CD88A0F84050038470BD98
:1025B000828B4FF2FF331A408283828B0B0642EAF2
:1025C000134282837047F0B50C4615460022002165
:1025D0000026078C4EF6FF7C07EA0C070784828BE7
:1025E000018C27073E0C40F6FF473A402F0642EA8F
:1025F00017421F0742EA1742DC4FB8420ED0DC4FA9
:10260000B8420BD0B0F1804F08D0DA4FB84205D0B5
:10261000D94FB84202D0D94FB84206D14DF6FF7714
:10262000394046F48057394305E047F6FF573940B3
:1026300044F48057394382830184F0BD828B4FF686
:10264000F3731A408283828B0A4382837047F0B50A
:102650000C461546002200210026078C4FF6FF6C21
:1026600007EA0C070784828B018C27063E0C4FF685
:102670000C773A401F0545EA17473A43BB4FB8422B
:102680000ED0BB4FB8420BD0B0F1804F08D0B94F3D
:10269000B84205D0B84FB84202D0B84FB84206D1C0
:1026A0004FF6FF57394046F48077394305E04FF243
:1026B000FF57394044F48077394382830184F0BD69
:1026C000028B4FF2FF331A400283028B0B0642EA61
:1026D000134202837047F0B50C46154600220021D4
:1026E0000026078C4FF6EF7C07EA0C070784028B65
:1026F000018C27053E0C40F6FF473A401F0742EA8F
:1027000017422F0642EA1742984FB8420ED0984F10
:10271000B8420BD0B0F1804F08D0964FB84205D0E8
:10272000954FB84202D0954FB84206D14FF6DF77A9
:10273000394046F01007394305E04FF65F773940DE
:1027400044F01007394302830184F0BD028B4FF639
:10275000F3731A400283028B0A4302837047F0B579
:102760000C46154600220021068C4FF6FE773E40AF
:102770000684028B018C4FF60C7632401E0545EA2A
:1027800016463243794EB0420ED0794EB0420BD04D
:10279000B0F1804F08D0774EB04205D0764EB042AF
:1027A00002D0764EB04206D14FF6FD76314044F06D
:1027B0000106314305E04FF6F576314044F001065D
:1027C000314302830184F0BD70B505460C4667486D
:1027D00085420ED0664885420BD0B5F1804F08D0B7
:1027E0006448854205D06448854202D063488542EA
:1027F00000D100E000BF208850B92389A2886188F9
:102800002846FFF7ACFFE1882846FFF79FFF25E049
:10281000208804280AD12389A28861882846FFF7E6
:102820005AFFE1882846FFF74BFF17E02088082869
:102830000AD12389A28861882846FFF708FFE1882A
:102840002846FFF7FBFE09E02389A2886188284615
:10285000FFF7B9FEE1882846FFF7AAFE70BD2DE913
:10286000F04105460C4600260127608808B902267B
:1028700000E00026A088012801D1022700E00127FE
:102880002088A0B92389A28861882846FFF767FFBE
:10289000E1882846FFF75AFF23893A463146284601
:1028A000FFF719FFE1882846FFF70AFF13E02389A5
:1028B000A28861882846FFF70EFFE1882846FFF7C7
:1028C000FFFE23893A4631462846FFF748FFE18854
:1028D0002846FFF73BFFBDE8F0810A884B881A4382
:1028E0008B881A43CB881A430B891A434B891A43A6
:1028F0008B891A43A0F8442070474FF6FF718180FE
:1029000000210180C1804180017270470021018057
:1029100041808180C180018141818181C181704775
:10292000002101804180012181800021C18001813D
:1029300070470021018041808180C18001814181F7
:102940008181704721B1028842F00102028004E0D7
:1029500002884FF6FE731A400280704781B1B0F8CA
:10296000442042F40042A0F844200FE0002C014033
:10297000003401400004004000080040000C00400A
:10298000B0F84420C2F30E02A0F84420704710B5FE
:102990001AB183890B43838104E08389CC43A4B2B9
:1029A0002340838110BD8182704741EA0203A0F871
:1029B0004830704710B51AB183890B43838104E016
:1029C0008389CC43A4B22340838110BD01894FF693
:1029D000F8721140018170470A46002101894FF6C3
:1029E0008F73194011430181704730B504460D467D
:1029F00029462046FFF7F0FF208940F0070020819C
:102A000030BD2DE9F04104460D4616461F46602DA7
:102A100006D13B46012231462046FFF75CFE05E029
:102A20003B46012231462046FFF799FE29462046C3
:102A3000FFF7D2FF208940F007002081BDE8F08138
:102A400030B50C4600210189C9B21D0642EA154580
:102A500025432943018130BD2DE9F04105460E464D
:102A600017469846002443463A4631462846FFF723
:102A7000E7FF2C894FF6F870044044F007044FF646
:102A80008F70044044F070042C81BDE8F081F0B5F3
:102A900004460D4616461F463B463246294620460A
:102AA000FFF7CEFF208940F480402081F0BD0185F2
:102AB000828270470A46002101884FF68F731940C1
:102AC000114301807047F0B50C4615461E460021A3
:102AD000002200230189028B038C4FF6F8773940DE
:102AE00021434FF6FC473A4040F201173A434FF674
:102AF000DD773B40370545EA17473B4301810283B9
:102B00000384F0BD0A460021018B4FF68F731940F4
:102B10001143018370470A460021018B48F6FF7379
:102B20001940130641EA1341018370470A46002108
:102B3000818B4FF68F7319401143818370470A468A
:102B40000021818B48F6FF731940130641EA1341B7
:102B50008183704721B1028842F08002028004E044
:102B600002884FF67F731A400280704721B1828835
:102B700042F00402828004E082884FF6FB731A4020
:102B80008280704721B1828842F00802828004E08E
:102B900082884FF6F7731A408280704721B182888D
:102BA00042F00102828004E082884FF6FE731A40F0
:102BB000828070470A460021018B4FF6F773194057
:102BC0001143018370470A460021018B4FF2FF73C6
:102BD0001940130641EA1341018370470A46002158
:102BE000818B4FF6F77319401143818370470A4672
:102BF0000021818B4FF2FF731940130641EA134104
:102C0000818370470A460021018B4FF6FB73194000
:102C10001143018370470A460021018B4FF6FF33B1
:102C20001940130641EA1341018370470A46002107
:102C3000818B4FF6FB7319401143818370470A461D
:102C40000021818B4FF6FF331940130641EA1341EF
:102C5000818370470A460021018B4FF67F7319402C
:102C60001143018370470A460021018BC1F30E0115
:102C7000130641EA1341018370470A460021818B04
:102C80004FF67F7319401143818370470A46002134
:102C9000818BC1F30E01130641EA13418183704712
:102CA0000A460021018C4FF6FD731940114301843F
:102CB00070470A460021018C4FF6F7731940114303
:102CC000018470470A460021018C4FF6DF731940DA
:102CD000130541EA1341018470470A460021018C23
:102CE0004FF67F731940130541EA13410184704781
:102CF0000A460021018C4FF6FF531940130641EAA2
:102D00001341018470470A460021018C4FF2FF7382
:102D10001940130641EA1341018470470A46002115
:102D2000018C4DF6FF731940130741EA13410184EA
:102D3000704730B5002301248C40A3B2048CDD43DE
:102D4000ADB22C400484048C02FA01F5ADB22C43E0
:102D5000048430BD30B5002304248C40A3B2048C1D
:102D6000DD43ADB22C400484048C02FA01F5ADB20F
:102D70002C43048430BD70B503460020002418465F
:102D8000183001258D40ACB21D8CE643B6B23540FB
:102D90001D8409B1082909D100EB6100056825F0FF
:102DA000700505600568154305600CE00D1FADB2A8
:102DB00000EB6500056825F4E0450560056816062A
:102DC00045EA1645056070BD21B1028842F0020255
:102DD000028004E002884FF6FD731A4002807047BB
:102DE00021B1028842F00402028004E002884FF61A
:102DF000FB731A400280704721B1828842F0800242
:102E0000828004E082884FF67F731A408280704788
:102E100002884FF6F7731A40028002880A43028044
:102E2000704782884FF68F731A40828082880A43E7
:102E30008280704702894FF6F8731A400281028936
:102E40000A430281704702894FF67F731A4002815C
:102E500002890A43028170478184704781857047E7
:102E6000818670470187704781877047A0F84010BE
:102E7000704702884FF6FF431A40028002880A43D7
:102E8000028070470146888E70470146088F704760
:102E90000146888F70470146B1F8400070470146EF
:102EA000888C70470146088D704702460020138ABF
:102EB0000B4201D0012000E000207047CA4302828B
:102EC000704730B50246002000230024158A05EA29
:102ED0000103958905EA010413B10CB1012000E05A
:102EE000002030BDCA4302827047000010B504467E
:102EF000FC48844209D101218803FFF7D1F8002161
:102F00004FF48040FFF7CCF832E0F748844209D113
:102F100001214804FFF7D1F800214FF40030FFF7FA
:102F2000CCF825E0F148844209D101218804FFF75B
:102F3000C4F800214FF48020FFF7BFF818E0EC48F8
:102F4000844209D10121C804FFF7B7F800214FF4EA
:102F50000020FFF7B2F80BE0E648844208D10121D7
:102F60000805FFF7AAF800214FF48010FFF7A5F835
:102F700010BD2DE9F04786B005460E460024A24656
:102F800000BFA1460027B08900B100BF2F462C8AA0
:102F90004CF6FF700440F08804432C82AC894EF656
:102FA000F3100440B0883189084371890843044311
:102FB000AC81AC8A4FF6FF400440B0890443AC8238
:102FC00001A8FEF7E6FFC748874202D1DDF810A04E
:102FD00001E0DDF80CA0A88910F4004F08D00AEB3E
:102FE000CA0000EB0A1031684900B0FBF1F807E0B5
:102FF0000AEBCA0000EB0A1031688900B0FBF1F857
:103000006420B8FBF0F004012009642101FB108961
:10301000A88910F4004F08D0322000EBC900B0FBA3
:10302000F1F000F00700044308E0322000EB091043
:103030006421B0FBF1F000F00F0004432C8106B0D6
:10304000BDE8F0874FF41651016000218180C180F6
:1030500001810C21418100218181704710B5024618
:103060000020108A4FF2FF0318400B884C8823433E
:103070008C882343CC8823431843108210BD002141
:10308000018041808180C180704721B1828942F4F2
:103090000052828104E082894DF6FF731A408281DA
:1030A0007047F0B503460024002600250020A1F556
:1030B00010676A3F00D100BF1846C1F3421401F007
:1030C0001F06012707FA06F5012C01D10C3004E098
:1030D000022C01D1103000E014301AB107682F43E0
:1030E000076002E00768AF430760F0BD10B51AB192
:1030F000838A0B43838204E0838ACC43A4B22340B7
:10310000838210BD028A4FF6F0731A400282028A4F
:103110000A430282704782894FF2FF731A4082810C
:1031200082890A438281704721B1828942F002027A
:10313000828104E082894FF6FD731A4082817047D4
:10314000028A4FF6DF731A400282028A0A43028221
:10315000704721B1028A42F48042028204E0028A6E
:103160004BF6FF731A4002827047C1F30802828057
:10317000704701468888C0F308007047818941F094
:10318000010181817047028BD2B20283028B42EA35
:10319000012202837047028B02F47F420283028B7A
:1031A0000A430283704721B1828A42F02002828260
:1031B00004E0828A4FF6DF731A408282704721B1A1
:1031C000828A42F01002828204E0828A4FF6EF7314
:1031D0001A408282704721B1828A42F008028282BC
:1031E00004E0828A4FF6F7731A408282704721B159
:1031F000828942F40042828103E08289C2F30E0296
:103200008281704721B1828A42F40062828204E0A6
:10321000828A4FF2FF731A4082827047828A4FF689
:10322000FB731A408282828A0A438282704721B1EC
:10323000828A42F00202828204E0828A4FF6FD73A3
:103240001A408282704702460020B1F5007F00D10B
:1032500000BF13880B4201D0012000E0002070471E
:1032600001F40072B2F5007F00D100BFCA430280B2
:10327000704770B502460024002300250020A1F508
:1032800010666A3E00D100BFC1F3421501F01F0372
:10329000012606FA03F3012D02D19689334006E098
:1032A000022D02D1168A334001E0968A33400C1277
:1032B000012606FA04F41688344013B10CB101203B
:1032C00000E0002070BD10B500220023A1F51064BD
:1032D0006A3C00D100BF0A1201249440A3B2DC432F
:1032E000048010BD00380140004400400048004008
:1032F000004C004000500040064880470648004708
:10330000FEE7FEE7FEE7FEE7FEE7FEE7FEE7FEE795
:10331000FEE7FEE74501000831010008F0B480EA4D
:103320000102D20F4300B3EB410F02D2034608461D
:1033300019464B0042D0C30DDDB2C1F3C7542C1B5C
:10334000202C35DAC1F3160141F4000502B16D42BB
:10335000C4F1200605FA06F125412844B3EBD05FFD
:1033600023D0C2B1012CA0EBC35009DCF0BC4FF05C
:10337000004202EAC35200F50000DBB200F0EABAF4
:10338000400000F1807000EBC350A0F1807040EA73
:10339000D170490009E0490841EAC071A0EBC3506F
:1033A00000F50000400800EBC350F0BC00F0C9BAC3
:1033B0005142012303EB4101801AF6E7F0BC70474C
:1033C00081F00041AAE780F00040A7E780EA01020F
:1033D00010B502F00042400026D04B0023D04FEA47
:1033E000106101EB1361C0F35600C3F3560340F4C0
:1033F000000043F40003A0FB0330A1F17F014FEA7A
:1034000000401C0401D000F1010050EA134001D437
:103410004000491EC3B20C0604EBD010401C40080B
:10342000802B02D003E0002010BD20F00100002915
:1034300000DA0020104310BD80EA010202F00043D0
:1034400030B430F0004221F0004015D0A0B1C0F3FC
:10345000C755C2F3C754C2F31601C0F31600651B6B
:1034600041F4000140F400007D35814201D36D1C20
:1034700000E04900002D02DA30BC002070474FF414
:1034800000020024814201D3091A144352084FEA72
:103490004101F7D151B1814202D14FF0004105E025
:1034A00002D24FF0010101E06FF0010104EBC550C1
:1034B00030BC184400F045BA2DE9FE4F074681EABA
:1034C0000300C00F0E46019021F0004123F000449C
:1034D000B81AA14105D23846314617461E460B465A
:1034E000024623F00040104304D13846314603B071
:1034F000BDE8F08F350DC5F30A00C3F30A51029001
:10350000401A0090402868DAC3F3130040F4801B8F
:103510000198924620B10023D2EB030A63EB0B0B18
:1035200000985946C0F14002504600F0D9F9804653
:103530000C4650465946009A00F0F1F9C019714105
:10354000EF1785EA11533B4340D0019A52B3009ADA
:10355000012A11DC0022801A4FF0004361EB055173
:1035600003EA05538018CDE9002341F58011424656
:10357000234600F029FABAE72E050025401B61EB2F
:103580000601401941F58012001852412818A6F58D
:10359000001343EB020140EAD470294318EB0808FA
:1035A000644113E064084FEA38084FF0000244EA2F
:1035B000C0744FEA0553801A61EB0301801841F58E
:1035C000801149084FEA300080185941424623468D
:1035D00003B0BDE8F04F00F0EAB9019801224000C5
:1035E0000023D0EB020263EBE07301984FEAE07432
:1035F000381A66EB0401EBE783F000435CE781F0E7
:10360000004159E72DE9FE4F81EA030421F000450E
:1036100004F0004423F000414FF0000A009450EA07
:10362000050302D052EA010304D10020014603B091
:10363000BDE8F08FC1F30A53C5F30A541C44A0FB44
:1036400002B3C5F3130545F4801CC1F3130141F423
:1036500080180CFB023300FB083EA4F2F334810A0D
:10366000930A41EA8C5143EA88530194A1FB034732
:103670004FEA9C2505FB03734FEA982601FB0637AA
:103680003D05260545EA1435BBEB06016EEB050347
:10369000850E920E45EA8C1542EA8812A5FB0206B9
:1036A000261E67EB00070C0D44EA0334A41947EB10
:1036B0001350C1F313064FF0000319464FEA0333CA
:1036C00043EA165343EA0403019CE5FB0201A4F11B
:1036D0000C040294009C4FEA0632CDE900A400F0ED
:1036E00073F9A4E72DE9F04D81EA030404F0004BDF
:1036F00021F0004714464FF0000A23F0004150EA41
:10370000070220D054EA01021DD0C1F30A55024637
:10371000C1F31300C7F30A56C7F3130340F4801133
:1037200043F48013A6EB0508101BD64608F2FD38BB
:1037300073EB010002D308F1010801E092185B412C
:10374000B8F1000F03DA00200146BDE8F08D00203B
:103750004FF48015064607460EE0B2EB040C73EBFF
:10376000010C04D3121B064363EB01032F436D08C6
:103770004FEA300092185B4150EA050CEDD152EA55
:10378000030012D082EA040083EA0105284303D132
:1037900000224FF0004308E0101B8B4102D20122AF
:1037A000002302E06FF0010253101AEB060047EB12
:1037B000085110EB0A0041EB0B01BDE8F04D00F0A1
:1037C000F6B8C10F80EAE0700844CA0796230021CA
:1037D00000F0C0B80EB5C10F80EAE0700844CA0717
:1037E000002140F233438DE80E000A460B4600F0FC
:1037F000EBF803B000BD00F0004220F00040C10D26
:10380000C0F3160040F400007F2901DA0020704761
:10381000962903DCC1F19601C84001E09639884041
:10382000002AF4D04042704770B5C1F30A5201F04B
:1038300000450024C1F3130140F2FF3341F480112D
:103840009A4201DA002070BD40F233439A42A2F25C
:10385000334203DC524200F052F800E090402C4327
:10386000F1D0404270BD00F0004230F000400DD079
:10387000C10D01F5607142EA01510022C0F316004A
:10388000520742EAD0024007114370470020014628
:10389000704701F0004230B421F0004150EA0103CA
:1038A00006D00B0DA3F56073C1F31301002B02DCEE
:1038B00030BC00207047440F44EAC104C100A01886
:1038C00030BC00EBC35000F03CB80000002801DB26
:1038D000C0F10040002901DBC1F100418142704785
:1038E000202A04DB203A00FA02F1002070479140C0
:1038F000C2F1200320FA03F3194390407047202AB5
:1039000004DB203A21FA02F00021704721FA02F389
:10391000D040C2F120029140084319467047202A46
:1039200006DBCB17203A41FA02F043EAE071704718
:1039300041FA02F3D040C2F12002914008431946F7
:1039400070470029A8BF7047401C490008BF20F0FD
:103950000100704710B4B0FA80FC00FA0CF050EA95
:10396000010404BF10BC704749B1CCF1200421FA16
:1039700004F411FA0CF118BF012121430843A3EB11
:103980000C01CB1D0106000A002BBEBF002010BC9D
:10399000704700EBC35010440029A4BF10BC70470F
:1039A000401C490008BF20F0010010BC704710B552
:1039B000002B08DA401C41F1000192185B411A43C8
:1039C00001D120F0010010BD2DE9F04D92469B463B
:1039D00011B1B1FA81F202E0B0FA80F220329046E1
:1039E000FFF77EFF06460F4640EA0A0041EA0B0158
:1039F00052465B46084303D130463946BDE8F08D58
:103A0000194652EA010015D0C8F140025046FFF7AE
:103A100076FF04460D46504659464246FFF760FF82
:103A2000084301D0012000E00020044345EAE0758E
:103A300026432F430A984FEAD625A0EB08000A3008
:103A40004FEA46534FF0000245EA47554FEAD72464
:103A500002D500200146D1E7010550196141DDE999
:103A6000084500196941BDE8F04DA0E770B521F0A7
:103A7000004303430CD0C1F30A540026D4EB0605DF
:103A800066EB0603D417AD1AA34102DB0020014602
:103A900070BD001C41EB025170BD2DE9F04D0023BB
:103AA0001A461B1A8A4103DB00200146BDE8F08D4F
:103AB000C1F30A52C1F3130141F480154FF0000B1A
:103AC000D10702D100186D41521E0026044640F273
:103AD000FF11304601EB620A37468046024600205D
:103AE0004FF48011FFF70BFF80197941331847EB32
:103AF0000102B4EB030C75EB020C04D3E41A65EB82
:103B0000020506460F46241908F101006D41804662
:103B10003428E3DDB11947EB0700091BA84103D2A4
:103B20004FF0FF32134601E0002213461BEB060064
:103B300047EB0A51BDE8F04DFFF739BF30B500291A
:103B400004DB4FF00044404264EB0101002B04DB36
:103B50004FF00044524264EB0303994208BF904285
:103B600030BD0000064C074D06E0E06840F0010360
:103B700094E8070098471034AC42F6D3FCF7DCFA1F
:103B8000304A0008504A0008490050EAC12018BFD6
:103B900004204A0D18BF40F0010040F2FF72B2EB62
:103BA000515F08BF40F00200012808BF05207047A0
:103BB0002DE9F0414F1E00EBC7010446D1E9000199
:103BC00015461E4637F006020DD02A463346FFF74B
:103BD00019FD7F1E04EBC703D3E90023FFF76CFC3C
:103BE00037F00602F1D1022F25D0042F13D0062F73
:103BF00018BFBDE8F0812A463346FFF703FDD4E93C
:103C00000A23FFF759FC2A463346FFF7FBFCD4E9A9
:103C10000823FFF751FC2A463346FFF7F3FCD4E9AB
:103C20000623FFF749FC2A463346FFF7EBFCD4E9AD
:103C30000423FFF741FC2A463346FFF7E3FCD4E9AF
:103C40000223FFF739FC2A463346FFF7DBFCD4E9B1
:103C50000023BDE8F041FFF72FBC0000024A00201E
:103C60001107FFF703BF000001FDFFFF02E008C8D6
:103C7000121F08C1002AFAD170477047002001E0E6
:103C800001C1121F002AFBD17047000001490860E2
:103C9000704700007C0000202DE9F04D904F21F08E
:103CA000004A86B005460C46BA4530DBAAEB070051
:103CB00028430CD08B48824501DC1CD1DDB106B015
:103CC0002846BDE8F04D4FF00102FFF7CFBE864A0F
:103CD000864B2846FFF796FC07460E46844A854BDE
:103CE00028462146FFF78EFC06B03A463346BDE82B
:103CF000F04DFFF7E1BB0120FFF7C8FF06B000223F
:103D0000BDE8F04D134610461146FFF7EBBC7A486C
:103D1000824542DABAF1795F0BDA2846FFF734FFC1
:103D2000042808BFFFF79AFF284606B02146BDE8E1
:103D3000F08D2A460B461046FFF764FC8346024688
:103D40006E480E460B4606217844FFF731FF5A466F
:103D50003346FFF757FC804669488A465A46334641
:103D600004217844FFF724FF5A463346FFF74AFC04
:103D700000223B46FFF7A0FB02460B464046514659
:103D8000FFF7B0FC2A462346FFF73CFC06B02A4664
:103D90002346BDE8F04DFFF78FBB284624F00041D5
:103DA00000223D463B46FFF72AFC4FF0FF32FFF76B
:103DB0005DFE0646024653480F460B4606217844F0
:103DC000FFF7F6FE32463B46FFF71CFCCDE900014B
:103DD0004D4832463B4604217844FFF7E9FE32461F
:103DE0003B46FFF70FFC00222B46FFF765FB83469F
:103DF00002913046394600F083FD804643480D4627
:103E0000504517DCDDE900015A46029BFFF76AFCCA
:103E100042462B46FFF7F6FB42462B46FFF74CFB8C
:103E20000122FFF723FE304A304BFFF7E5FB304A13
:103E3000304B4CE04FF0000A52460B464046FFF72D
:103E40003BFBCDE9031052462B4610461946FFF7BF
:103E5000D9FB32463B46FFF7D2FBDDE90332FFF7E1
:103E600041FC06460F46DDE900015A46029BFFF77A
:103E700039FC83460091012230463946FFF7F6FDB2
:103E8000194A1A4BFFF7BBFB06460F460122404674
:103E90002946FFF7EBFD5A46009BFFF7B3FB32467E
:103EA0003B46FFF7A9FB07460E460122504629462E
:103EB000FFF7DCFD0E4DDFF858802A464346FFF73A
:103EC0009EFB3A463346FFF79AFB2A464346FFF7E6
:103ED00096FB002CD8BF81F0004106B0BDE8F08D04
:103EE0000000F03F0000F07F075C143326A6913CF1
:103EF000182D4454FB21F93F0000E03F040C000062
:103F00001A0C00008E0B0000A40B00003333EF3FAF
:103F1000FB21E93F2DE9F04D16460F46054602000C
:103F200096B01C4621F0004123F0004014BF4FF032
:103F3000010C4FF0000C0CEB470CFE4B0CEB030894
:103F40004FEA630CC4452DD85FEA060818BF4FF04E
:103F5000010808EB44089844F74B434522D8F74B37
:103F600050EA060C02D09F4205D14AB916B0002093
:103F70001946BDE8F08D002A08BF4FF0000C01D0B3
:103F80004FF0010C0CEB470313F5001F0AD8002E6D
:103F900014BF4FF0010C4FF0000C0CEB440313F571
:103FA000001F08D916B03246234628463946BDE8D8
:103FB000F04DFFF781BADFF888B34FF0000A002F09
:103FC000B8BF584523DADF4B9842A8BF4FF0020A2A
:103FD0001DDADA4B98421ADBDB4B03EB2053142B30
:103FE00008DDC3F1340C26FA0CF303FA0CFCB445DB
:103FF0000DD108E05EB9C3F1140C20FA0CF303FAFA
:104000000CFC844503D103F00103C3F1020A51EA19
:10401000020321D1002C1FDA002F18BFBAF1020FC2
:1040200002D0BAF1010F0BD00220FFF72FFE16B01D
:104030000022BDE8F04D13461046C049FFF752BBC1
:104040000220FFF723FE16B02A463B46BDE8F04D9E
:104050000020BA49FFF746BB330076D1584525D139
:1040600007F1804010F5801001BF002A0020B349FD
:1040700016B008BFBDE8F08DB048814207DB002CC8
:10408000A1BF1846214616B0BDE8F08D07E0201EFE
:1040900005DA80F0004116B01846BDE8F08DAB4956
:1040A0007944D1E9000116B0BDE8F08DDFF88CC28B
:1040B00060452FD1002C28DA39B159451CD1002A8E
:1040C00004BF002002460CD01FE06AB10220FFF7B7
:1040D000DDFD40F2013200204FF0E041FFF7C6FC69
:1040E0000A46394600F0DEBA954A394616B0002035
:1040F00062F31E01BDE8F08D07DA16B03B46BDE85D
:10410000F04D00206146FFF7EDBA16B01046394673
:10411000BDE8F08D8B4518DDB4F1804F0DD0A4F1D2
:104120000053B3F1FF5310D13B1E0EDB16B0104607
:10413000BDE8F04D194600F0E3BB3B4616B0104613
:10414000BDE8F04D1946FFF75DBA27F00043A2BB6A
:10415000E1B1594538D1002F06DD002CA1BF002068
:10416000594616B0BDE8F08D002F01DD002C1FDB95
:10417000002F16DA002C14DBBAF1010F4FF000000B
:104180000CBF73496E4916B0BDE8F08DBAF1020F4D
:1041900018BF002F0CD0BAF1010F09D1002F07DA98
:1041A0000CE0002FB8BF002C0EDABAF1010F05D0D9
:1041B000002016B00146BDE8F08D05E016B00020E5
:1041C0004FF00041BDE8F08D4FF0010C0CEBE772B1
:1041D0000F9252EA0A020BD05E4A90427DDD5E4B9E
:1041E0005E4A984216DD91420EDC002C1CDB2CE06E
:1041F0000120FFF74BFD16B00022BDE8F04D13463D
:1042000010461146FFF76EBA4C48884202DC002C7B
:104210000ADC1AE08A4202DD002C05DB15E0474B80
:1042200099421EDD002C10DD0220FFF72FFD40F229
:10423000013200204FF0E041FFF718FC404A16B071
:1042400061F31E021146BDE8F08D0220FFF71EFD4E
:10425000FFF704FD394A16B061F31E021146BDE8AE
:10426000F08D002228463946FFF7C6F905460F466D
:104270006FF00102FFF7FAFB4FF05532384BFFF7B2
:10428000BEF92A463B46FFF7BDF90022354BFFF742
:10429000B6F98B4680462A463B4610461946FFF73C
:1042A000B1F942465B46FFF7ADF980460B914FF0FE
:1042B000C0422D4B28463946FFF7A4F983460591A5
:1042C0002A4A294B40460B99FFF79CF988460290F1
:1042D000274A284B2846394600E01BE0FFF792F9B1
:1042E0004346029AFFF788F9054602460B460B91B2
:1042F00058460599FFF7E0F8002788465A463846A1
:10430000059BFFF779F92A460B9BFFF778F90246E0
:1043100000F073B90020B1F5801F07DA3522284676
:104320001946FFF7A3FB05466FF0340000EB215060
:1043300022E00000FFFF1F00FFFF0F000000F03F22
:104340000000F07F0000404301FCFFFF84090000F3
:104350000000F0FF0000E0410000F043FFFFEF3FEE
:104360005555D53F0000E03F4715F73FFE822B65CE
:1043700044DF5DF80BAE543EA0F2FF300190C1F374
:10438000130040F07F6141F040510291FE498842A4
:10439000D8BF4FF0000B0EDDFC498142C8BF4FF083
:1043A000010B08DC01984FF0000B401C01900298B3
:1043B000A0F580100290F6480299784400EBCB00FB
:1043C00009910790D0E900232846FFF715F90591D8
:1043D00000900798D0E9002328460999FFF76CF868
:1043E00002460B460020EB49FFF77CF90B910B4688
:1043F0000246069005990098FFF704F90A90E648EE
:1044000088460027784400680C9002994FF00050CD
:1044100040EA610000EB8B4000F500210291079813
:10442000D0E900230C98FFF7E7F82A46099BFFF72D
:10443000E6F83A464346FFF7E5F807910546384661
:104440004146029B0C9AFFF7DDF8059B009AFFF7A7
:10445000D6F82A46079BFFF7CFF80B9B069AFFF783
:10446000D1F80A9A06910890434610461946FFF77C
:10447000C9F805460246C9480B460791062178440B
:10448000FFF796FB0290079B2A46059110461946B6
:10449000FFF7B8F8059B029AFFF7B4F805910546B7
:1044A0004346384619460A9AFFF706F8069B089ACB
:1044B000FFF7A8F82A46059BFEF7FEFF3A4643465B
:1044C0000591129010461946FFF79CF80022B44B54
:1044D00007910090FEF7F0FF059B129AFEF7ECFFA4
:1044E0000D463A46AE4B3846FFF786F8079B009AD2
:1044F000FFF782F8059B129AFFF781F83A46079179
:1045000012902B4610464146FFF77CF8059100902B
:1045100043460A9A07991298FFF774F88046079164
:104520002B463A4606990898FFF76CF84246079BD7
:10453000FEF7C2FF88460690059B009AFEF7BCFF77
:1045400000200F460546059B009AFFF755F84346A5
:10455000069AFFF754F880460D914FF06042914B58
:1045600028463946FFF74EF8059100908E4A8D4B4C
:1045700040460D99FFF746F8804604918B4A8C4BD4
:1045800028463946FFF73EF84246049BFEF794FF63
:10459000884A7A4402EBCB03D3E90023FEF78CFF71
:1045A000029004910198FFF715F90791DDE90431B4
:1045B0000546029A0098FEF77FFF7F4A7A4402EB95
:1045C000CB0BDBE90023FEF777FF2A46079BFEF7BC
:1045D00073FF002788462A463846079BFFF70CF8EA
:1045E000DBE90023FFF708F8059B009AFFF704F8C2
:1045F000049B029AFFF703F8024600200A900F98E6
:10460000644DAAF10103184301D16C4D0A900020BA
:104610000B46029030462146FEF7F4FF82468B4659
:10462000234630461946029AFEF7E6FF3A464346CD
:10463000FEF7E8FF52465B46FEF73EFF06468A4617
:104640003A46434621460298FEF7DCFF04460F46F1
:1046500032465346FEF730FF594A8B46914226DBDD
:10466000ABEB020353EA000210D122463B46FEF7B1
:10467000C3FF80460391534A534B30465146FEF7E1
:104680001BFF4246039BFFF759FA2CD20220FFF78B
:10469000FDFA40F2013200204FF0E041FFF7E6F969
:1046A0000A46294616B062F31E01BDE8F08D474B5D
:1046B0002BF000429A4216D3454A0BEB020353EA11
:1046C000000208D122463B46FEF796FF324653468B
:1046D000FFF734FA07D80220FFF7D8FAFFF7BEFA3F
:1046E0000A462946DEE72BF000403A493A4A01EBF8
:1046F00020514FF00008904223DD481C4FF48011F8
:1047000021FA00F05844C0F30A51344AA1F2FF31B3
:104710007A44334B1268CB4020EA0303C0F3130002
:1047200040F4801CC1F114002CFA00F8BBF1000F1A
:10473000B8BFC8F1000820463946FEF75DFF0446C1
:104740000F4622463B4630465146FEF7B5FE4FF037
:10475000000B5A46234B58460791FEF753FF05912D
:104760000090214A214B58460799FEF74BFFCDE9AF
:10477000020122463B4658460799FEF73DFF324666
:104780005346FEF73CFF33E08E9803007AB60B00E9
:10479000E20500000000F03F200600004E0500008A
:1047A0000000084009C7EE3FFD033ADCF5015B1449
:1047B000E02F3EBE2A040000F00300000000F0BF1E
:1047C00000009040FE822B654715973C00CC90403E
:1047D00000346F3F01FCFFFF0000E03F14030000C6
:1047E000FFFF0F00432EE63F396CA80C615C20BE32
:1047F0003F4A404BFEF706FFDDE90223FEF75CFE71
:1048000007468A46059B009AFEF756FE04460E466A
:10481000059B009AFEF7F0FE3A465346FEF7EFFE80
:104820000746224633460B9110461946FEF7EAFE2C
:104830008346024630488A460B4605217844FFF7F6
:10484000B7F95A465346FEF7DDFE22463346FEF7D9
:10485000D6FE82468B463A46204631460B9BFEF7F3
:10486000D1FE3A460B9BFEF727FE00910C900022EA
:104870004FF0804350465946FEF7BEFE074603916F
:1048800052465B4620463146FEF7BCFE3A46039B45
:10489000FEF728FF009B0C9AFEF7AEFE2246334639
:1048A000FEF7AAFE0022154BFEF7A9FE0E460446AF
:1048B00001EB08510815002810DC4246204631461D
:1048C000FFF7D4F8FFF760F9042808BFFFF7C6F92F
:1048D000424620463146FFF7C9F804460A980B467F
:1048E00016B022462946BDE8F04DFEF78BBE00000B
:1048F000EF39FAFE422EE63FC00100000000F03F13
:104900002DE9F04106460F46FFF7C7F80D460400B3
:1049100018BF0120284320F00040C0F17F6010F153
:10492000E0400FD5002E14BF01200020384320F0B6
:104930000040C0F17F6000F1E0400028A4BF0120EA
:10494000FFF7A4F920462946BDE8F08100000000E9
:10495000555555555555C53F7D6FEB0312D6D4BF00
:104960005544880E55C1C93F3B8F68B52882A4BF06
:1049700088B20175E0EF493F09F7FD0DE13D023FC7
:104980004B2D8A1C273A03C0C88A599CE52A00404F
:1049900059018D1B6C06E6BF82922EB1C5B8B33F9C
:1049A000000000000000F03F000000000000F83FA1
:1049B00000000000000000000000004003B8E23FDB
:1049C000000000000000000006D0CF43EBFD4C3E8D
:1049D000033333333333E33FFFAB6FDBB66DDB3F82
:1049E0004D268F515555D53F01411DA96074D13FCA
:1049F00065DBC9934A86CD3FEF4E454A287ECA3FC4
:104A00003E5555555555C53F93BDBE166CC166BF45
:104A10002CDE25AF6A56113FF16BD2C541BDBBBE3E
:104A2000D0A4BE726937663E00000000000000009E
:104A3000504A000800000020800000006C3C000884
:104A4000D04A000880000020280400007C3C0008B8
:104A50000100000000000000000000000000000055
:104A60000000000000000000000000000000000046
:104A70000000000000000000000000000000000036
:104A80000000000001010000000000000000000024
:104A90000000000000000000000000000000000016
:104AA0000100000000000000000000000000000005
:104AB00000000000000000000000010203040102E9
:104AC00003040607080902040608000000000000AD
:0400000508000131BD
:00000001FF
